{
  "contractName": "CountdownGriefing",
  "abi": [
    {
      "constant": true,
      "inputs": [],
      "name": "getCreator",
      "outputs": [
        {
          "internalType": "address",
          "name": "creator",
          "type": "address"
        }
      ],
      "payable": false,
      "stateMutability": "view",
      "type": "function"
    },
    {
      "constant": true,
      "inputs": [],
      "name": "getToken",
      "outputs": [
        {
          "internalType": "address",
          "name": "token",
          "type": "address"
        }
      ],
      "payable": false,
      "stateMutability": "pure",
      "type": "function"
    },
    {
      "constant": true,
      "inputs": [
        {
          "internalType": "address",
          "name": "caller",
          "type": "address"
        }
      ],
      "name": "isActiveOperator",
      "outputs": [
        {
          "internalType": "bool",
          "name": "ok",
          "type": "bool"
        }
      ],
      "payable": false,
      "stateMutability": "view",
      "type": "function"
    },
    {
      "constant": true,
      "inputs": [
        {
          "internalType": "uint256",
          "name": "ratio",
          "type": "uint256"
        },
        {
          "internalType": "uint256",
          "name": "punishment",
          "type": "uint256"
        },
        {
          "internalType": "enum Griefing.RatioType",
          "name": "ratioType",
          "type": "uint8"
        }
      ],
      "name": "getCost",
      "outputs": [
        {
          "internalType": "uint256",
          "name": "cost",
          "type": "uint256"
        }
      ],
      "payable": false,
      "stateMutability": "pure",
      "type": "function"
    },
    {
      "constant": true,
      "inputs": [
        {
          "internalType": "uint256",
          "name": "ratio",
          "type": "uint256"
        },
        {
          "internalType": "uint256",
          "name": "cost",
          "type": "uint256"
        },
        {
          "internalType": "enum Griefing.RatioType",
          "name": "ratioType",
          "type": "uint8"
        }
      ],
      "name": "getPunishment",
      "outputs": [
        {
          "internalType": "uint256",
          "name": "punishment",
          "type": "uint256"
        }
      ],
      "payable": false,
      "stateMutability": "pure",
      "type": "function"
    },
    {
      "constant": true,
      "inputs": [],
      "name": "getDeadline",
      "outputs": [
        {
          "internalType": "uint256",
          "name": "deadline",
          "type": "uint256"
        }
      ],
      "payable": false,
      "stateMutability": "view",
      "type": "function"
    },
    {
      "constant": true,
      "inputs": [
        {
          "internalType": "address",
          "name": "caller",
          "type": "address"
        }
      ],
      "name": "isOperator",
      "outputs": [
        {
          "internalType": "bool",
          "name": "ok",
          "type": "bool"
        }
      ],
      "payable": false,
      "stateMutability": "view",
      "type": "function"
    },
    {
      "constant": true,
      "inputs": [
        {
          "internalType": "address",
          "name": "staker",
          "type": "address"
        }
      ],
      "name": "getRatio",
      "outputs": [
        {
          "internalType": "uint256",
          "name": "ratio",
          "type": "uint256"
        },
        {
          "internalType": "enum Griefing.RatioType",
          "name": "ratioType",
          "type": "uint8"
        }
      ],
      "payable": false,
      "stateMutability": "view",
      "type": "function"
    },
    {
      "constant": true,
      "inputs": [],
      "name": "isAfterDeadline",
      "outputs": [
        {
          "internalType": "bool",
          "name": "status",
          "type": "bool"
        }
      ],
      "payable": false,
      "stateMutability": "view",
      "type": "function"
    },
    {
      "constant": true,
      "inputs": [
        {
          "internalType": "address",
          "name": "staker",
          "type": "address"
        }
      ],
      "name": "getStake",
      "outputs": [
        {
          "internalType": "uint256",
          "name": "stake",
          "type": "uint256"
        }
      ],
      "payable": false,
      "stateMutability": "view",
      "type": "function"
    },
    {
      "constant": true,
      "inputs": [],
      "name": "getFactory",
      "outputs": [
        {
          "internalType": "address",
          "name": "factory",
          "type": "address"
        }
      ],
      "payable": false,
      "stateMutability": "view",
      "type": "function"
    },
    {
      "constant": true,
      "inputs": [],
      "name": "hasActiveOperator",
      "outputs": [
        {
          "internalType": "bool",
          "name": "ok",
          "type": "bool"
        }
      ],
      "payable": false,
      "stateMutability": "view",
      "type": "function"
    },
    {
      "constant": true,
      "inputs": [],
      "name": "isOver",
      "outputs": [
        {
          "internalType": "bool",
          "name": "status",
          "type": "bool"
        }
      ],
      "payable": false,
      "stateMutability": "view",
      "type": "function"
    },
    {
      "constant": true,
      "inputs": [],
      "name": "getLength",
      "outputs": [
        {
          "internalType": "uint256",
          "name": "length",
          "type": "uint256"
        }
      ],
      "payable": false,
      "stateMutability": "view",
      "type": "function"
    },
    {
      "constant": true,
      "inputs": [],
      "name": "timeRemaining",
      "outputs": [
        {
          "internalType": "uint256",
          "name": "time",
          "type": "uint256"
        }
      ],
      "payable": false,
      "stateMutability": "view",
      "type": "function"
    },
    {
      "constant": true,
      "inputs": [],
      "name": "getOperator",
      "outputs": [
        {
          "internalType": "address",
          "name": "operator",
          "type": "address"
        }
      ],
      "payable": false,
      "stateMutability": "view",
      "type": "function"
    },
    {
      "constant": true,
      "inputs": [
        {
          "internalType": "address",
          "name": "caller",
          "type": "address"
        }
      ],
      "name": "isCreator",
      "outputs": [
        {
          "internalType": "bool",
          "name": "ok",
          "type": "bool"
        }
      ],
      "payable": false,
      "stateMutability": "view",
      "type": "function"
    },
    {
      "anonymous": false,
      "inputs": [
        {
          "indexed": false,
          "internalType": "address",
          "name": "operator",
          "type": "address"
        },
        {
          "indexed": false,
          "internalType": "address",
          "name": "staker",
          "type": "address"
        },
        {
          "indexed": false,
          "internalType": "address",
          "name": "counterparty",
          "type": "address"
        },
        {
          "indexed": false,
          "internalType": "uint256",
          "name": "ratio",
          "type": "uint256"
        },
        {
          "indexed": false,
          "internalType": "enum Griefing.RatioType",
          "name": "ratioType",
          "type": "uint8"
        },
        {
          "indexed": false,
          "internalType": "uint256",
          "name": "countdownLength",
          "type": "uint256"
        },
        {
          "indexed": false,
          "internalType": "bytes",
          "name": "metadata",
          "type": "bytes"
        }
      ],
      "name": "Initialized",
      "type": "event"
    },
    {
      "anonymous": false,
      "inputs": [
        {
          "indexed": false,
          "internalType": "address",
          "name": "operator",
          "type": "address"
        },
        {
          "indexed": false,
          "internalType": "bool",
          "name": "status",
          "type": "bool"
        }
      ],
      "name": "OperatorUpdated",
      "type": "event"
    },
    {
      "anonymous": false,
      "inputs": [
        {
          "indexed": false,
          "internalType": "bytes",
          "name": "metadata",
          "type": "bytes"
        }
      ],
      "name": "MetadataSet",
      "type": "event"
    },
    {
      "anonymous": false,
      "inputs": [
        {
          "indexed": false,
          "internalType": "address",
          "name": "staker",
          "type": "address"
        },
        {
          "indexed": false,
          "internalType": "uint256",
          "name": "ratio",
          "type": "uint256"
        },
        {
          "indexed": false,
          "internalType": "enum Griefing.RatioType",
          "name": "ratioType",
          "type": "uint8"
        }
      ],
      "name": "RatioSet",
      "type": "event"
    },
    {
      "anonymous": false,
      "inputs": [
        {
          "indexed": false,
          "internalType": "address",
          "name": "punisher",
          "type": "address"
        },
        {
          "indexed": false,
          "internalType": "address",
          "name": "staker",
          "type": "address"
        },
        {
          "indexed": false,
          "internalType": "uint256",
          "name": "punishment",
          "type": "uint256"
        },
        {
          "indexed": false,
          "internalType": "uint256",
          "name": "cost",
          "type": "uint256"
        },
        {
          "indexed": false,
          "internalType": "bytes",
          "name": "message",
          "type": "bytes"
        }
      ],
      "name": "Griefed",
      "type": "event"
    },
    {
      "anonymous": false,
      "inputs": [
        {
          "indexed": false,
          "internalType": "address",
          "name": "staker",
          "type": "address"
        },
        {
          "indexed": false,
          "internalType": "address",
          "name": "funder",
          "type": "address"
        },
        {
          "indexed": false,
          "internalType": "uint256",
          "name": "amount",
          "type": "uint256"
        },
        {
          "indexed": false,
          "internalType": "uint256",
          "name": "newStake",
          "type": "uint256"
        }
      ],
      "name": "StakeAdded",
      "type": "event"
    },
    {
      "anonymous": false,
      "inputs": [
        {
          "indexed": false,
          "internalType": "address",
          "name": "staker",
          "type": "address"
        },
        {
          "indexed": false,
          "internalType": "address",
          "name": "recipient",
          "type": "address"
        },
        {
          "indexed": false,
          "internalType": "uint256",
          "name": "amount",
          "type": "uint256"
        },
        {
          "indexed": false,
          "internalType": "uint256",
          "name": "newStake",
          "type": "uint256"
        }
      ],
      "name": "StakeTaken",
      "type": "event"
    },
    {
      "anonymous": false,
      "inputs": [
        {
          "indexed": false,
          "internalType": "address",
          "name": "staker",
          "type": "address"
        },
        {
          "indexed": false,
          "internalType": "uint256",
          "name": "amount",
          "type": "uint256"
        },
        {
          "indexed": false,
          "internalType": "uint256",
          "name": "newStake",
          "type": "uint256"
        }
      ],
      "name": "StakeBurned",
      "type": "event"
    },
    {
      "anonymous": false,
      "inputs": [
        {
          "indexed": false,
          "internalType": "uint256",
          "name": "length",
          "type": "uint256"
        }
      ],
      "name": "LengthSet",
      "type": "event"
    },
    {
      "anonymous": false,
      "inputs": [
        {
          "indexed": false,
          "internalType": "uint256",
          "name": "deadline",
          "type": "uint256"
        }
      ],
      "name": "DeadlineSet",
      "type": "event"
    },
    {
      "constant": false,
      "inputs": [
        {
          "internalType": "address",
          "name": "operator",
          "type": "address"
        },
        {
          "internalType": "address",
          "name": "staker",
          "type": "address"
        },
        {
          "internalType": "address",
          "name": "counterparty",
          "type": "address"
        },
        {
          "internalType": "uint256",
          "name": "ratio",
          "type": "uint256"
        },
        {
          "internalType": "enum Griefing.RatioType",
          "name": "ratioType",
          "type": "uint8"
        },
        {
          "internalType": "uint256",
          "name": "countdownLength",
          "type": "uint256"
        },
        {
          "internalType": "bytes",
          "name": "metadata",
          "type": "bytes"
        }
      ],
      "name": "initialize",
      "outputs": [],
      "payable": false,
      "stateMutability": "nonpayable",
      "type": "function"
    },
    {
      "constant": false,
      "inputs": [
        {
          "internalType": "bytes",
          "name": "metadata",
          "type": "bytes"
        }
      ],
      "name": "setMetadata",
      "outputs": [],
      "payable": false,
      "stateMutability": "nonpayable",
      "type": "function"
    },
    {
      "constant": false,
      "inputs": [
        {
          "internalType": "uint256",
          "name": "currentStake",
          "type": "uint256"
        },
        {
          "internalType": "uint256",
          "name": "amountToAdd",
          "type": "uint256"
        }
      ],
      "name": "increaseStake",
      "outputs": [],
      "payable": false,
      "stateMutability": "nonpayable",
      "type": "function"
    },
    {
      "constant": false,
      "inputs": [
        {
          "internalType": "uint256",
          "name": "currentStake",
          "type": "uint256"
        },
        {
          "internalType": "uint256",
          "name": "amountToAdd",
          "type": "uint256"
        }
      ],
      "name": "reward",
      "outputs": [],
      "payable": false,
      "stateMutability": "nonpayable",
      "type": "function"
    },
    {
      "constant": false,
      "inputs": [
        {
          "internalType": "uint256",
          "name": "currentStake",
          "type": "uint256"
        },
        {
          "internalType": "uint256",
          "name": "punishment",
          "type": "uint256"
        },
        {
          "internalType": "bytes",
          "name": "message",
          "type": "bytes"
        }
      ],
      "name": "punish",
      "outputs": [
        {
          "internalType": "uint256",
          "name": "cost",
          "type": "uint256"
        }
      ],
      "payable": false,
      "stateMutability": "nonpayable",
      "type": "function"
    },
    {
      "constant": false,
      "inputs": [
        {
          "internalType": "uint256",
          "name": "currentStake",
          "type": "uint256"
        },
        {
          "internalType": "uint256",
          "name": "amountToRelease",
          "type": "uint256"
        }
      ],
      "name": "releaseStake",
      "outputs": [],
      "payable": false,
      "stateMutability": "nonpayable",
      "type": "function"
    },
    {
      "constant": false,
      "inputs": [],
      "name": "startCountdown",
      "outputs": [
        {
          "internalType": "uint256",
          "name": "deadline",
          "type": "uint256"
        }
      ],
      "payable": false,
      "stateMutability": "nonpayable",
      "type": "function"
    },
    {
      "constant": false,
      "inputs": [
        {
          "internalType": "address",
          "name": "recipient",
          "type": "address"
        }
      ],
      "name": "retrieveStake",
      "outputs": [
        {
          "internalType": "uint256",
          "name": "amount",
          "type": "uint256"
        }
      ],
      "payable": false,
      "stateMutability": "nonpayable",
      "type": "function"
    },
    {
      "constant": false,
      "inputs": [
        {
          "internalType": "address",
          "name": "operator",
          "type": "address"
        }
      ],
      "name": "transferOperator",
      "outputs": [],
      "payable": false,
      "stateMutability": "nonpayable",
      "type": "function"
    },
    {
      "constant": false,
      "inputs": [],
      "name": "renounceOperator",
      "outputs": [],
      "payable": false,
      "stateMutability": "nonpayable",
      "type": "function"
    },
    {
      "constant": true,
      "inputs": [
        {
          "internalType": "address",
          "name": "caller",
          "type": "address"
        }
      ],
      "name": "isStaker",
      "outputs": [
        {
          "internalType": "bool",
          "name": "validity",
          "type": "bool"
        }
      ],
      "payable": false,
      "stateMutability": "view",
      "type": "function"
    },
    {
      "constant": true,
      "inputs": [
        {
          "internalType": "address",
          "name": "caller",
          "type": "address"
        }
      ],
      "name": "isCounterparty",
      "outputs": [
        {
          "internalType": "bool",
          "name": "validity",
          "type": "bool"
        }
      ],
      "payable": false,
      "stateMutability": "view",
      "type": "function"
    }
  ],
  "bytecode": "0x608060405234801561001057600080fd5b50613779806100206000396000f3fe608060405234801561001057600080fd5b50600436106101cf5760003560e01c806373f500af11610104578063b4bd9e27116100a2578063e3cfef6011610071578063e3cfef60146109c6578063e7f43c68146109e4578063ee57e36f14610a2e578063efd4606514610ae9576101cf565b8063b4bd9e2714610812578063b6ef428414610834578063be1c766b14610970578063bec10cde1461098e576101cf565b80637a766460116100de5780637a7664601461071657806388cc58e41461076e578063923b1762146107b8578063a4fa8d57146107da576101cf565b806373f500af1461062b578063754b2707146106875780637878f257146106f4576101cf565b8063465b414e116101715780635e5365c11161014b5780635e5365c1146105375780635f8d96de146105555780636d70f7ae146105735780636f1e8533146105cf576101cf565b8063465b414e1461044d5780634a66db95146104a65780635baeb806146104de576101cf565b806329605e77116101ad57806329605e771461034b5780632ab6f8db1461038f5780633367cca51461039957806341ce2878146103f5576101cf565b80630ee2cb10146101d45780630fc15f201461021e57806321df0da714610301575b600080fd5b6101dc610b45565b604051808273ffffffffffffffffffffffffffffffffffffffff1673ffffffffffffffffffffffffffffffffffffffff16815260200191505060405180910390f35b6102eb6004803603606081101561023457600080fd5b8101908080359060200190929190803590602001909291908035906020019064010000000081111561026557600080fd5b82018360208201111561027757600080fd5b8035906020019184600183028401116401000000008311171561029957600080fd5b91908080601f016020809104026020016040519081016040528093929190818152602001838380828437600081840152601f19601f820116905080830192505050505050509192919290505050610c26565b6040518082815260200191505060405180910390f35b610309610d4c565b604051808273ffffffffffffffffffffffffffffffffffffffff1673ffffffffffffffffffffffffffffffffffffffff16815260200191505060405180910390f35b61038d6004803603602081101561036157600080fd5b81019080803573ffffffffffffffffffffffffffffffffffffffff169060200190929190505050610d68565b005b610397610def565b005b6103db600480360360208110156103af57600080fd5b81019080803573ffffffffffffffffffffffffffffffffffffffff169060200190929190505050610e74565b604051808215151515815260200191505060405180910390f35b6104376004803603602081101561040b57600080fd5b81019080803573ffffffffffffffffffffffffffffffffffffffff169060200190929190505050610e96565b6040518082815260200191505060405180910390f35b6104906004803603606081101561046357600080fd5b810190808035906020019092919080359060200190929190803560ff169060200190929190505050610fd3565b6040518082815260200191505060405180910390f35b6104dc600480360360408110156104bc57600080fd5b8101908080359060200190929190803590602001909291905050506110be565b005b610521600480360360608110156104f457600080fd5b810190808035906020019092919080359060200190929190803560ff169060200190929190505050611186565b6040518082815260200191505060405180910390f35b61053f6112b9565b6040518082815260200191505060405180910390f35b61055d6113d0565b6040518082815260200191505060405180910390f35b6105b56004803603602081101561058957600080fd5b81019080803573ffffffffffffffffffffffffffffffffffffffff1690602001909291905050506113d9565b604051808215151515815260200191505060405180910390f35b610611600480360360208110156105e557600080fd5b81019080803573ffffffffffffffffffffffffffffffffffffffff169060200190929190505050611418565b604051808215151515815260200191505060405180910390f35b61066d6004803603602081101561064157600080fd5b81019080803573ffffffffffffffffffffffffffffffffffffffff169060200190929190505050611475565b604051808215151515815260200191505060405180910390f35b6106c96004803603602081101561069d57600080fd5b81019080803573ffffffffffffffffffffffffffffffffffffffff1690602001909291905050506114d2565b604051808381526020018260028111156106df57fe5b60ff1681526020019250505060405180910390f35b6106fc611571565b604051808215151515815260200191505060405180910390f35b6107586004803603602081101561072c57600080fd5b81019080803573ffffffffffffffffffffffffffffffffffffffff169060200190929190505050611592565b6040518082815260200191505060405180910390f35b6107766115db565b604051808273ffffffffffffffffffffffffffffffffffffffff1673ffffffffffffffffffffffffffffffffffffffff16815260200191505060405180910390f35b6107c0611605565b604051808215151515815260200191505060405180910390f35b610810600480360360408110156107f057600080fd5b81019080803590602001909291908035906020019092919050505061161c565b005b61081a61173a565b604051808215151515815260200191505060405180910390f35b61096e600480360360e081101561084a57600080fd5b81019080803573ffffffffffffffffffffffffffffffffffffffff169060200190929190803573ffffffffffffffffffffffffffffffffffffffff169060200190929190803573ffffffffffffffffffffffffffffffffffffffff16906020019092919080359060200190929190803560ff16906020019092919080359060200190929190803590602001906401000000008111156108e857600080fd5b8201836020820111156108fa57600080fd5b8035906020019184600183028401116401000000008311171561091c57600080fd5b91908080601f016020809104026020016040519081016040528093929190818152602001838380828437600081840152601f19601f820116905080830192505050505050509192919290505050611762565b005b610978611a65565b6040518082815260200191505060405180910390f35b6109c4600480360360408110156109a457600080fd5b810190808035906020019092919080359060200190929190505050611a6f565b005b6109ce611baa565b6040518082815260200191505060405180910390f35b6109ec611be3565b604051808273ffffffffffffffffffffffffffffffffffffffff1673ffffffffffffffffffffffffffffffffffffffff16815260200191505060405180910390f35b610ae760048036036020811015610a4457600080fd5b8101908080359060200190640100000000811115610a6157600080fd5b820183602082011115610a7357600080fd5b80359060200191846001830284011164010000000083111715610a9557600080fd5b91908080601f016020809104026020016040519081016040528093929190818152602001838380828437600081840152601f19601f820116905080830192505050505050509192919290505050611c0d565b005b610b2b60048036036020811015610aff57600080fd5b81019080803573ffffffffffffffffffffffffffffffffffffffff169060200190929190505050611ca4565b604051808215151515815260200191505060405180910390f35b6000600560009054906101000a900473ffffffffffffffffffffffffffffffffffffffff1673ffffffffffffffffffffffffffffffffffffffff16636bf71982306040518263ffffffff1660e01b8152600401808273ffffffffffffffffffffffffffffffffffffffff1673ffffffffffffffffffffffffffffffffffffffff16815260200191505060206040518083038186803b158015610be657600080fd5b505afa158015610bfa573d6000803e3d6000fd5b505050506040513d6020811015610c1057600080fd5b8101908080519060200190929190505050905090565b6000610c3133611475565b80610c415750610c4033610e74565b5b610c96576040517f08c379a00000000000000000000000000000000000000000000000000000000081526004018080602001828103825260248152602001806136676024913960400191505060405180910390fd5b610c9e61173a565b15610d11576040517f08c379a000000000000000000000000000000000000000000000000000000000815260040180806020018281038252600f8152602001807f61677265656d656e7420656e646564000000000000000000000000000000000081525060200191505060405180910390fd5b610d4333600660000160009054906101000a900473ffffffffffffffffffffffffffffffffffffffff16868686611ce3565b90509392505050565b6000731776e1f26f98b1a5df9cd347953a26dd3cb46671905090565b610d7133610e74565b610de3576040517f08c379a00000000000000000000000000000000000000000000000000000000081526004018080602001828103825260148152602001807f6f6e6c7920616374697665206f70657261746f7200000000000000000000000081525060200191505060405180910390fd5b610dec81611fcc565b50565b610df833610e74565b610e6a576040517f08c379a00000000000000000000000000000000000000000000000000000000081526004018080602001828103825260148152602001807f6f6e6c7920616374697665206f70657261746f7200000000000000000000000081525060200191505060405180910390fd5b610e7261209d565b565b6000610e7f826113d9565b8015610e8f5750610e8e611605565b5b9050919050565b6000610ea133611418565b80610eb15750610eb033610e74565b5b610f23576040517f08c379a000000000000000000000000000000000000000000000000000000000815260040180806020018281038252601e8152602001807f6f6e6c79207374616b6572206f7220616374697665206f70657261746f72000081525060200191505060405180910390fd5b610f2b611571565b610f9d576040517f08c379a00000000000000000000000000000000000000000000000000000000081526004018080602001828103825260138152602001807f646561646c696e65206e6f74207061737365640000000000000000000000000081525060200191505060405180910390fd5b610fcc600660000160009054906101000a900473ffffffffffffffffffffffffffffffffffffffff16836121e6565b9050919050565b6000600280811115610fe157fe5b826002811115610fed57fe5b141561101e576012600a0a61100f611009856012600a0a61223c565b866122c2565b8161101657fe5b0490506110b7565b6001600281111561102b57fe5b82600281111561103757fe5b141561104657600090506110b7565b6000600281111561105357fe5b82600281111561105f57fe5b14156110b6576040517f08c379a00000000000000000000000000000000000000000000000000000000081526004018080602001828103825260218152602001806136f86021913960400191505060405180910390fd5b5b9392505050565b6110c733611475565b806110d757506110d633610e74565b5b61112c576040517f08c379a00000000000000000000000000000000000000000000000000000000081526004018080602001828103825260248152602001806136676024913960400191505060405180910390fd5b611182600660000160009054906101000a900473ffffffffffffffffffffffffffffffffffffffff16600660000160009054906101000a900473ffffffffffffffffffffffffffffffffffffffff1684846122fa565b5050565b600060028081111561119457fe5b8260028111156111a057fe5b14156111d1576012600a0a6111c26111bc856012600a0a61223c565b866126c1565b816111c957fe5b0490506112b2565b600160028111156111de57fe5b8260028111156111ea57fe5b1415611241576040517f08c379a00000000000000000000000000000000000000000000000000000000081526004018080602001828103825260218152602001806136246021913960400191505060405180910390fd5b6000600281111561124e57fe5b82600281111561125a57fe5b14156112b1576040517f08c379a00000000000000000000000000000000000000000000000000000000081526004018080602001828103825260218152602001806136f86021913960400191505060405180910390fd5b5b9392505050565b60006112c433611418565b806112d457506112d333610e74565b5b611346576040517f08c379a000000000000000000000000000000000000000000000000000000000815260040180806020018281038252601e8152602001807f6f6e6c79207374616b6572206f7220616374697665206f70657261746f72000081525060200191505060405180910390fd5b60006113506113d0565b146113c3576040517f08c379a00000000000000000000000000000000000000000000000000000000081526004018080602001828103825260148152602001807f646561646c696e6520616c72656164792073657400000000000000000000000081525060200191505060405180910390fd5b6113cb6126f5565b905090565b60008054905090565b60006113e3611be3565b73ffffffffffffffffffffffffffffffffffffffff168273ffffffffffffffffffffffffffffffffffffffff16149050919050565b6000600660000160009054906101000a900473ffffffffffffffffffffffffffffffffffffffff1673ffffffffffffffffffffffffffffffffffffffff168273ffffffffffffffffffffffffffffffffffffffff16149050919050565b6000600660010160009054906101000a900473ffffffffffffffffffffffffffffffffffffffff1673ffffffffffffffffffffffffffffffffffffffff168273ffffffffffffffffffffffffffffffffffffffff16149050919050565b600080600360008473ffffffffffffffffffffffffffffffffffffffff1673ffffffffffffffffffffffffffffffffffffffff168152602001908152602001600020600001549150600360008473ffffffffffffffffffffffffffffffffffffffff1673ffffffffffffffffffffffffffffffffffffffff16815260200190815260200160002060010160009054906101000a900460ff169050915091565b6000806000541415611586576000905061158f565b60005442101590505b90565b6000600260008373ffffffffffffffffffffffffffffffffffffffff1673ffffffffffffffffffffffffffffffffffffffff168152602001908152602001600020549050919050565b6000600560009054906101000a900473ffffffffffffffffffffffffffffffffffffffff16905090565b6000600460149054906101000a900460ff16905090565b61162533611475565b80611635575061163433610e74565b5b61168a576040517f08c379a00000000000000000000000000000000000000000000000000000000081526004018080602001828103825260248152602001806136676024913960400191505060405180910390fd5b61169261173a565b15611705576040517f08c379a000000000000000000000000000000000000000000000000000000000815260040180806020018281038252600f8152602001807f61677265656d656e7420656e646564000000000000000000000000000000000081525060200191505060405180910390fd5b611736600660000160009054906101000a900473ffffffffffffffffffffffffffffffffffffffff1633848461271a565b5050565b6000806117456113d0565b1415611754576000905061175f565b61175c611571565b90505b90565b33600560006101000a81548173ffffffffffffffffffffffffffffffffffffffff021916908373ffffffffffffffffffffffffffffffffffffffff1602179055506000303b905060008163ffffffff1614611808576040517f08c379a000000000000000000000000000000000000000000000000000000000815260040180806020018281038252602a8152602001806136ce602a913960400191505060405180910390fd5b86600660000160006101000a81548173ffffffffffffffffffffffffffffffffffffffff021916908373ffffffffffffffffffffffffffffffffffffffff16021790555085600660010160006101000a81548173ffffffffffffffffffffffffffffffffffffffff021916908373ffffffffffffffffffffffffffffffffffffffff160217905550600073ffffffffffffffffffffffffffffffffffffffff168873ffffffffffffffffffffffffffffffffffffffff16146118d6576118cd88612abc565b6118d5612c3a565b5b6118e1878686612d64565b6118ea83612f2e565b60008251146118fd576118fc82612f6f565b5b7f664ded22802a39a33ce123e5d663871dacea1984cc7ec83e5b8b850118649f6488888888888888604051808873ffffffffffffffffffffffffffffffffffffffff1673ffffffffffffffffffffffffffffffffffffffff1681526020018773ffffffffffffffffffffffffffffffffffffffff1673ffffffffffffffffffffffffffffffffffffffff1681526020018673ffffffffffffffffffffffffffffffffffffffff1673ffffffffffffffffffffffffffffffffffffffff1681526020018581526020018460028111156119d157fe5b60ff16815260200183815260200180602001828103825283818151815260200191508051906020019080838360005b83811015611a1b578082015181840152602081019050611a00565b50505050905090810190601f168015611a485780820380516001836020036101000a031916815260200191505b509850505050505050505060405180910390a15050505050505050565b6000600154905090565b611a7833611418565b80611a885750611a8733610e74565b5b611afa576040517f08c379a000000000000000000000000000000000000000000000000000000000815260040180806020018281038252601e8152602001807f6f6e6c79207374616b6572206f7220616374697665206f70657261746f72000081525060200191505060405180910390fd5b611b0261173a565b15611b75576040517f08c379a000000000000000000000000000000000000000000000000000000000815260040180806020018281038252600f8152602001807f61677265656d656e7420656e646564000000000000000000000000000000000081525060200191505060405180910390fd5b611ba6600660000160009054906101000a900473ffffffffffffffffffffffffffffffffffffffff1633848461271a565b5050565b6000611bb46113d0565b4210611bc35760009050611be0565b611bdd42611bcf6113d0565b61300e90919063ffffffff16565b90505b90565b6000600460009054906101000a900473ffffffffffffffffffffffffffffffffffffffff16905090565b611c1633611418565b80611c265750611c2533610e74565b5b611c98576040517f08c379a000000000000000000000000000000000000000000000000000000000815260040180806020018281038252601e8152602001807f6f6e6c79207374616b6572206f7220616374697665206f70657261746f72000081525060200191505060405180910390fd5b611ca181612f6f565b50565b6000611cae610b45565b73ffffffffffffffffffffffffffffffffffffffff168273ffffffffffffffffffffffffffffffffffffffff16149050919050565b6000611cee85611592565b841115611d63576040517f08c379a00000000000000000000000000000000000000000000000000000000081526004018080602001828103825260178152602001807f63757272656e74207374616b6520696e636f727265637400000000000000000081525060200191505060405180910390fd5b6000600360008773ffffffffffffffffffffffffffffffffffffffff1673ffffffffffffffffffffffffffffffffffffffff1681526020019081526020016000206000015490506000600360008873ffffffffffffffffffffffffffffffffffffffff1673ffffffffffffffffffffffffffffffffffffffff16815260200190815260200160002060010160009054906101000a900460ff16905060006002811115611e0b57fe5b816002811115611e1757fe5b1415611e8b576040517f08c379a00000000000000000000000000000000000000000000000000000000081526004018080602001828103825260158152602001807f6e6f2070756e6973686d656e7420616c6c6f776564000000000000000000000081525060200191505060405180910390fd5b611e96828683610fd3565b9250611ea28884613097565b611ead8787876131e3565b7fca93c648a4546f2ae486b9140f0082ced75a2664a663c8882b8b3545cddfeeb18888878688604051808673ffffffffffffffffffffffffffffffffffffffff1673ffffffffffffffffffffffffffffffffffffffff1681526020018573ffffffffffffffffffffffffffffffffffffffff1673ffffffffffffffffffffffffffffffffffffffff16815260200184815260200183815260200180602001828103825283818151815260200191508051906020019080838360005b83811015611f83578082015181840152602081019050611f68565b50505050905090810190601f168015611fb05780820380516001836020036101000a031916815260200191505b50965050505050505060405180910390a1505095945050505050565b600073ffffffffffffffffffffffffffffffffffffffff16600460009054906101000a900473ffffffffffffffffffffffffffffffffffffffff1673ffffffffffffffffffffffffffffffffffffffff161415612091576040517f08c379a00000000000000000000000000000000000000000000000000000000081526004018080602001828103825260108152602001807f6f70657261746f72206e6f74207365740000000000000000000000000000000081525060200191505060405180910390fd5b61209a81612abc565b50565b6120a5611605565b612117576040517f08c379a00000000000000000000000000000000000000000000000000000000081526004018080602001828103825260198152602001807f6f6e6c79207768656e206f70657261746f72206163746976650000000000000081525060200191505060405180910390fd5b6000600460006101000a81548173ffffffffffffffffffffffffffffffffffffffff021916908373ffffffffffffffffffffffffffffffffffffffff1602179055506000600460146101000a81548160ff0219169083151502179055507f966c160e1c4dbc7df8d69af4ace01e9297c3cf016397b7914971f2fbfa32672d600080604051808373ffffffffffffffffffffffffffffffffffffffff1673ffffffffffffffffffffffffffffffffffffffff168152602001821515151581526020019250505060405180910390a1565b6000600260008473ffffffffffffffffffffffffffffffffffffffff1673ffffffffffffffffffffffffffffffffffffffff168152602001908152602001600020549050612236838383846122fa565b92915050565b60008083141561224f57600090506122bc565b600082840290508284828161226057fe5b04146122b7576040517f08c379a000000000000000000000000000000000000000000000000000000000815260040180806020018281038252602181526020018061368b6021913960400191505060405180910390fd5b809150505b92915050565b60006012600a0a6122ea6122d6858561223c565b60026012600a0a816122e457fe5b04613443565b816122f157fe5b04905092915050565b600260008573ffffffffffffffffffffffffffffffffffffffff1673ffffffffffffffffffffffffffffffffffffffff1681526020019081526020016000205482146123ae576040517f08c379a00000000000000000000000000000000000000000000000000000000081526004018080602001828103825260178152602001807f63757272656e74207374616b6520696e636f727265637400000000000000000081525060200191505060405180910390fd5b60008111612424576040517f08c379a00000000000000000000000000000000000000000000000000000000081526004018080602001828103825260108152602001807f6e6f207374616b6520746f2074616b650000000000000000000000000000000081525060200191505060405180910390fd5b8181111561247d576040517f08c379a00000000000000000000000000000000000000000000000000000000081526004018080602001828103825260228152602001806136456022913960400191505060405180910390fd5b6000612492828461300e90919063ffffffff16565b905080600260008773ffffffffffffffffffffffffffffffffffffffff1673ffffffffffffffffffffffffffffffffffffffff168152602001908152602001600020819055506124e0610d4c565b73ffffffffffffffffffffffffffffffffffffffff1663a9059cbb85846040518363ffffffff1660e01b8152600401808373ffffffffffffffffffffffffffffffffffffffff1673ffffffffffffffffffffffffffffffffffffffff16815260200182815260200192505050602060405180830381600087803b15801561256657600080fd5b505af115801561257a573d6000803e3d6000fd5b505050506040513d602081101561259057600080fd5b8101908080519060200190929190505050612613576040517f08c379a00000000000000000000000000000000000000000000000000000000081526004018080602001828103825260158152602001807f746f6b656e207472616e73666572206661696c6564000000000000000000000081525060200191505060405180910390fd5b7f79cb01d8e263c1d344176f9a596b5a6aa14a7df350a227e2e7df836a087b566185858484604051808573ffffffffffffffffffffffffffffffffffffffff1673ffffffffffffffffffffffffffffffffffffffff1681526020018473ffffffffffffffffffffffffffffffffffffffff1673ffffffffffffffffffffffffffffffffffffffff16815260200183815260200182815260200194505050505060405180910390a15050505050565b6000816126e56126d5856012600a0a61223c565b600285816126df57fe5b04613443565b816126ec57fe5b04905092915050565b600061270c4260015461344390919063ffffffff16565b9050612717816134cb565b90565b600260008573ffffffffffffffffffffffffffffffffffffffff1673ffffffffffffffffffffffffffffffffffffffff1681526020019081526020016000205482146127ce576040517f08c379a00000000000000000000000000000000000000000000000000000000081526004018080602001828103825260178152602001807f63757272656e74207374616b6520696e636f727265637400000000000000000081525060200191505060405180910390fd5b60008111612844576040517f08c379a000000000000000000000000000000000000000000000000000000000815260040180806020018281038252600f8152602001807f6e6f207374616b6520746f20616464000000000000000000000000000000000081525060200191505060405180910390fd5b6000612859828461344390919063ffffffff16565b905080600260008773ffffffffffffffffffffffffffffffffffffffff1673ffffffffffffffffffffffffffffffffffffffff168152602001908152602001600020819055506128a7610d4c565b73ffffffffffffffffffffffffffffffffffffffff166323b872dd8530856040518463ffffffff1660e01b8152600401808473ffffffffffffffffffffffffffffffffffffffff1673ffffffffffffffffffffffffffffffffffffffff1681526020018373ffffffffffffffffffffffffffffffffffffffff1673ffffffffffffffffffffffffffffffffffffffff1681526020018281526020019350505050602060405180830381600087803b15801561296157600080fd5b505af1158015612975573d6000803e3d6000fd5b505050506040513d602081101561298b57600080fd5b8101908080519060200190929190505050612a0e576040517f08c379a00000000000000000000000000000000000000000000000000000000081526004018080602001828103825260158152602001807f746f6b656e207472616e73666572206661696c6564000000000000000000000081525060200191505060405180910390fd5b7fef7c8dfef14cbefdf829b8f066b068b677992411137321d64b3ed4538c2b363785858484604051808573ffffffffffffffffffffffffffffffffffffffff1673ffffffffffffffffffffffffffffffffffffffff1681526020018473ffffffffffffffffffffffffffffffffffffffff1673ffffffffffffffffffffffffffffffffffffffff16815260200183815260200182815260200194505050505060405180910390a15050505050565b8073ffffffffffffffffffffffffffffffffffffffff16600460009054906101000a900473ffffffffffffffffffffffffffffffffffffffff1673ffffffffffffffffffffffffffffffffffffffff161415612b80576040517f08c379a00000000000000000000000000000000000000000000000000000000081526004018080602001828103825260188152602001807f63616e6e6f74207365742073616d65206f70657261746f72000000000000000081525060200191505060405180910390fd5b80600460006101000a81548173ffffffffffffffffffffffffffffffffffffffff021916908373ffffffffffffffffffffffffffffffffffffffff1602179055507f966c160e1c4dbc7df8d69af4ace01e9297c3cf016397b7914971f2fbfa32672d81612beb611605565b604051808373ffffffffffffffffffffffffffffffffffffffff1673ffffffffffffffffffffffffffffffffffffffff168152602001821515151581526020019250505060405180910390a150565b612c42611605565b15612cb5576040517f08c379a000000000000000000000000000000000000000000000000000000000815260040180806020018281038252601d8152602001807f6f6e6c79207768656e206f70657261746f72206e6f742061637469766500000081525060200191505060405180910390fd5b6001600460146101000a81548160ff0219169083151502179055507f966c160e1c4dbc7df8d69af4ace01e9297c3cf016397b7914971f2fbfa32672d600460009054906101000a900473ffffffffffffffffffffffffffffffffffffffff166001604051808373ffffffffffffffffffffffffffffffffffffffff1673ffffffffffffffffffffffffffffffffffffffff168152602001821515151581526020019250505060405180910390a1565b60006002811115612d7157fe5b816002811115612d7d57fe5b1480612d9f575060016002811115612d9157fe5b816002811115612d9d57fe5b145b15612dfe5760008214612dfd576040517f08c379a000000000000000000000000000000000000000000000000000000000815260040180806020018281038252602c815260200180613719602c913960400191505060405180910390fd5b5b81600360008573ffffffffffffffffffffffffffffffffffffffff1673ffffffffffffffffffffffffffffffffffffffff1681526020019081526020016000206000018190555080600360008573ffffffffffffffffffffffffffffffffffffffff1673ffffffffffffffffffffffffffffffffffffffff16815260200190815260200160002060010160006101000a81548160ff02191690836002811115612ea357fe5b02179055507fc964ed8af672f908dc7ba57f61d45a87a7e179cecf5198e7b7d53c920d898f06838383604051808473ffffffffffffffffffffffffffffffffffffffff1673ffffffffffffffffffffffffffffffffffffffff168152602001838152602001826002811115612f1457fe5b60ff168152602001935050505060405180910390a1505050565b806001819055507f7caceb1091bbaa84d09ab116a1fd72387eaab8a33d70fc39168b9b75686ee32c816040518082815260200191505060405180910390a150565b7fbb39ebb37e60fb5d606ffdb749d2336e56b88e6c88c4bd6513b308f643186eed816040518080602001828103825283818151815260200191508051906020019080838360005b83811015612fd1578082015181840152602081019050612fb6565b50505050905090810190601f168015612ffe5780820380516001836020036101000a031916815260200191505b509250505060405180910390a150565b600082821115613086576040517f08c379a000000000000000000000000000000000000000000000000000000000815260040180806020018281038252601e8152602001807f536166654d6174683a207375627472616374696f6e206f766572666c6f77000081525060200191505060405180910390fd5b600082840390508091505092915050565b731776e1f26f98b1a5df9cd347953a26dd3cb4667173ffffffffffffffffffffffffffffffffffffffff16637c8d56b883836040518363ffffffff1660e01b8152600401808373ffffffffffffffffffffffffffffffffffffffff1673ffffffffffffffffffffffffffffffffffffffff16815260200182815260200192505050602060405180830381600087803b15801561313257600080fd5b505af1158015613146573d6000803e3d6000fd5b505050506040513d602081101561315c57600080fd5b81019080805190602001909291905050506131df576040517f08c379a00000000000000000000000000000000000000000000000000000000081526004018080602001828103825260138152602001807f6e6d72206275726e46726f6d206661696c65640000000000000000000000000081525060200191505060405180910390fd5b5050565b600260008473ffffffffffffffffffffffffffffffffffffffff1673ffffffffffffffffffffffffffffffffffffffff168152602001908152602001600020548214613297576040517f08c379a00000000000000000000000000000000000000000000000000000000081526004018080602001828103825260178152602001807f63757272656e74207374616b6520696e636f727265637400000000000000000081525060200191505060405180910390fd5b6000811161330d576040517f08c379a00000000000000000000000000000000000000000000000000000000081526004018080602001828103825260108152602001807f6e6f207374616b6520746f206275726e0000000000000000000000000000000081525060200191505060405180910390fd5b81811115613366576040517f08c379a00000000000000000000000000000000000000000000000000000000081526004018080602001828103825260228152602001806136ac6022913960400191505060405180910390fd5b600061337b828461300e90919063ffffffff16565b905080600260008673ffffffffffffffffffffffffffffffffffffffff1673ffffffffffffffffffffffffffffffffffffffff168152602001908152602001600020819055506133ca8261350c565b7ff470d7f6c239014b63db190652ebe51433a828b65e06d9972143c34c2e2ca3bc848383604051808473ffffffffffffffffffffffffffffffffffffffff1673ffffffffffffffffffffffffffffffffffffffff168152602001838152602001828152602001935050505060405180910390a150505050565b6000808284019050838110156134c1576040517f08c379a000000000000000000000000000000000000000000000000000000000815260040180806020018281038252601b8152602001807f536166654d6174683a206164646974696f6e206f766572666c6f77000000000081525060200191505060405180910390fd5b8091505092915050565b806000819055507f337b880688eb06df8adb77036a6c8def1da2b520bc901c04b3a5a23f9ae13039816040518082815260200191505060405180910390a150565b731776e1f26f98b1a5df9cd347953a26dd3cb4667173ffffffffffffffffffffffffffffffffffffffff1663a0712d68826040518263ffffffff1660e01b815260040180828152602001915050602060405180830381600087803b15801561357357600080fd5b505af1158015613587573d6000803e3d6000fd5b505050506040513d602081101561359d57600080fd5b8101908080519060200190929190505050613620576040517f08c379a000000000000000000000000000000000000000000000000000000000815260040180806020018281038252600f8152602001807f6e6d72206275726e206661696c6564000000000000000000000000000000000081525060200191505060405180910390fd5b5056fe726174696f547970652063616e6e6f7420626520526174696f547970652e496e6663616e6e6f742074616b65206d6f7265207468616e2063757272656e745374616b656f6e6c7920636f756e7465727061727479206f7220616374697665206f70657261746f72536166654d6174683a206d756c7469706c69636174696f6e206f766572666c6f7763616e6e6f74206275726e206d6f7265207468616e2063757272656e745374616b656d7573742062652063616c6c65642077697468696e20636f6e747261637420636f6e7374727563746f72726174696f547970652063616e6e6f7420626520526174696f547970652e4e614e726174696f206d7573742062652030207768656e20726174696f54797065206973204e614e206f7220496e66a265627a7a7231582046e49451968bc367f29ce8843bd371621e152d5bd9c3a01c6bd890057726f6bd64736f6c634300050b0032",
  "source": "pragma solidity ^0.5.0;\n\nimport \"../helpers/openzeppelin-solidity/math/SafeMath.sol\";\nimport \"../helpers/openzeppelin-solidity/token/ERC20/IERC20.sol\";\nimport \"../modules/Countdown.sol\";\nimport \"../modules/Griefing.sol\";\nimport \"../modules/EventMetadata.sol\";\nimport \"../modules/Operated.sol\";\nimport \"../modules/Template.sol\";\n\n/* Immediately engage with specific buyer\n * - Stake can be increased at any time.\n * - Request to end agreement and recover stake requires cooldown period to complete.\n * - Counterparty can greif the staker at predefined ratio.\n *\n * NOTE:\n * - This top level contract should only perform access control and state transitions\n *\n */\ncontract CountdownGriefing is Countdown, Griefing, EventMetadata, Operated, Template {\n\n    using SafeMath for uint256;\n\n    Data private _data;\n    struct Data {\n        address staker;\n        address counterparty;\n    }\n\n    event Initialized(address operator, address staker, address counterparty, uint256 ratio, Griefing.RatioType ratioType, uint256 countdownLength, bytes metadata);\n\n    function initialize(\n        address operator,\n        address staker,\n        address counterparty,\n        uint256 ratio,\n        Griefing.RatioType ratioType,\n        uint256 countdownLength,\n        bytes memory metadata\n    ) public initializeTemplate() {\n        // set storage values\n        _data.staker = staker;\n        _data.counterparty = counterparty;\n\n        // set operator\n        if (operator != address(0)) {\n            Operated._setOperator(operator);\n            Operated._activateOperator();\n        }\n\n        // set griefing ratio\n        Griefing._setRatio(staker, ratio, ratioType);\n\n        // set countdown length\n        Countdown._setLength(countdownLength);\n\n        // set metadata\n        if (metadata.length != 0) {\n            EventMetadata._setMetadata(metadata);\n        }\n\n        // log initialization params\n        emit Initialized(operator, staker, counterparty, ratio, ratioType, countdownLength, metadata);\n    }\n\n    // state functions\n\n    function setMetadata(bytes memory metadata) public {\n        // restrict access\n        require(isStaker(msg.sender) || Operated.isActiveOperator(msg.sender), \"only staker or active operator\");\n\n        // update metadata\n        EventMetadata._setMetadata(metadata);\n    }\n\n    function increaseStake(uint256 currentStake, uint256 amountToAdd) public {\n        // restrict access\n        require(isStaker(msg.sender) || Operated.isActiveOperator(msg.sender), \"only staker or active operator\");\n\n        // require agreement is not ended\n        require(!Countdown.isOver(), \"agreement ended\");\n\n        // add stake\n        Staking._addStake(_data.staker, msg.sender, currentStake, amountToAdd);\n    }\n\n    function reward(uint256 currentStake, uint256 amountToAdd) public {\n        // restrict access\n        require(isCounterparty(msg.sender) || Operated.isActiveOperator(msg.sender), \"only counterparty or active operator\");\n\n        // require agreement is not ended\n        require(!Countdown.isOver(), \"agreement ended\");\n\n        // add stake\n        Staking._addStake(_data.staker, msg.sender, currentStake, amountToAdd);\n    }\n\n    function punish(uint256 currentStake, uint256 punishment, bytes memory message) public returns (uint256 cost) {\n        // restrict access\n        require(isCounterparty(msg.sender) || Operated.isActiveOperator(msg.sender), \"only counterparty or active operator\");\n\n        // require agreement is not ended\n        require(!Countdown.isOver(), \"agreement ended\");\n\n        // execute griefing\n        cost = Griefing._grief(msg.sender, _data.staker, currentStake, punishment, message);\n    }\n\n    function releaseStake(uint256 currentStake, uint256 amountToRelease) public {\n        // restrict access\n        require(isCounterparty(msg.sender) || Operated.isActiveOperator(msg.sender), \"only counterparty or active operator\");\n\n        // release stake back to the staker\n        Staking._takeStake(_data.staker, _data.staker, currentStake, amountToRelease);\n    }\n\n    function startCountdown() public returns (uint256 deadline) {\n        // restrict access\n        require(isStaker(msg.sender) || Operated.isActiveOperator(msg.sender), \"only staker or active operator\");\n\n        // require countdown is not started\n        require(Deadline.getDeadline() == 0, \"deadline already set\");\n\n        // start countdown\n        deadline = Countdown._start();\n    }\n\n    function retrieveStake(address recipient) public returns (uint256 amount) {\n        // restrict access\n        require(isStaker(msg.sender) || Operated.isActiveOperator(msg.sender), \"only staker or active operator\");\n\n        // require deadline is passed\n        require(Deadline.isAfterDeadline(),\"deadline not passed\");\n\n        // retrieve stake\n        amount = Staking._takeFullStake(_data.staker, recipient);\n    }\n\n    function transferOperator(address operator) public {\n        // restrict access\n        require(Operated.isActiveOperator(msg.sender), \"only active operator\");\n\n        // transfer operator\n        Operated._transferOperator(operator);\n    }\n\n    function renounceOperator() public {\n        // restrict access\n        require(Operated.isActiveOperator(msg.sender), \"only active operator\");\n\n        // transfer operator\n        Operated._renounceOperator();\n    }\n\n    // view functions\n\n    function isStaker(address caller) public view returns (bool validity) {\n        validity = (caller == _data.staker);\n    }\n\n    function isCounterparty(address caller) public view returns (bool validity) {\n        validity = (caller == _data.counterparty);\n    }\n}\n",
  "sourcePath": "/Users/thegostep/github/erasure-protocol/contracts/agreements/CountdownGriefing.sol",
  "compiler": {
    "name": "solc",
    "version": "0.5.11+commit.c082d0b4.Emscripten.clang",
    "optimizer": false,
    "runs": 200
  },
  "schemaVersion": "2.2.0",
  "updatedAt": "2019-09-24T17:30:40.482Z"
}