{
  "contractName": "SimpleGriefing",
  "abi": [
    {
      "constant": true,
      "inputs": [],
      "name": "getCreator",
      "outputs": [
        {
          "internalType": "address",
          "name": "creator",
          "type": "address"
        }
      ],
      "payable": false,
      "stateMutability": "view",
      "type": "function"
    },
    {
      "constant": true,
      "inputs": [],
      "name": "getToken",
      "outputs": [
        {
          "internalType": "address",
          "name": "token",
          "type": "address"
        }
      ],
      "payable": false,
      "stateMutability": "pure",
      "type": "function"
    },
    {
      "constant": true,
      "inputs": [
        {
          "internalType": "address",
          "name": "caller",
          "type": "address"
        }
      ],
      "name": "isActiveOperator",
      "outputs": [
        {
          "internalType": "bool",
          "name": "ok",
          "type": "bool"
        }
      ],
      "payable": false,
      "stateMutability": "view",
      "type": "function"
    },
    {
      "constant": true,
      "inputs": [
        {
          "internalType": "uint256",
          "name": "ratio",
          "type": "uint256"
        },
        {
          "internalType": "uint256",
          "name": "punishment",
          "type": "uint256"
        },
        {
          "internalType": "enum Griefing.RatioType",
          "name": "ratioType",
          "type": "uint8"
        }
      ],
      "name": "getCost",
      "outputs": [
        {
          "internalType": "uint256",
          "name": "cost",
          "type": "uint256"
        }
      ],
      "payable": false,
      "stateMutability": "pure",
      "type": "function"
    },
    {
      "constant": true,
      "inputs": [
        {
          "internalType": "uint256",
          "name": "ratio",
          "type": "uint256"
        },
        {
          "internalType": "uint256",
          "name": "cost",
          "type": "uint256"
        },
        {
          "internalType": "enum Griefing.RatioType",
          "name": "ratioType",
          "type": "uint8"
        }
      ],
      "name": "getPunishment",
      "outputs": [
        {
          "internalType": "uint256",
          "name": "punishment",
          "type": "uint256"
        }
      ],
      "payable": false,
      "stateMutability": "pure",
      "type": "function"
    },
    {
      "constant": true,
      "inputs": [
        {
          "internalType": "address",
          "name": "caller",
          "type": "address"
        }
      ],
      "name": "isOperator",
      "outputs": [
        {
          "internalType": "bool",
          "name": "ok",
          "type": "bool"
        }
      ],
      "payable": false,
      "stateMutability": "view",
      "type": "function"
    },
    {
      "constant": true,
      "inputs": [
        {
          "internalType": "address",
          "name": "staker",
          "type": "address"
        }
      ],
      "name": "getRatio",
      "outputs": [
        {
          "internalType": "uint256",
          "name": "ratio",
          "type": "uint256"
        },
        {
          "internalType": "enum Griefing.RatioType",
          "name": "ratioType",
          "type": "uint8"
        }
      ],
      "payable": false,
      "stateMutability": "view",
      "type": "function"
    },
    {
      "constant": true,
      "inputs": [
        {
          "internalType": "address",
          "name": "staker",
          "type": "address"
        }
      ],
      "name": "getStake",
      "outputs": [
        {
          "internalType": "uint256",
          "name": "stake",
          "type": "uint256"
        }
      ],
      "payable": false,
      "stateMutability": "view",
      "type": "function"
    },
    {
      "constant": true,
      "inputs": [],
      "name": "getFactory",
      "outputs": [
        {
          "internalType": "address",
          "name": "factory",
          "type": "address"
        }
      ],
      "payable": false,
      "stateMutability": "view",
      "type": "function"
    },
    {
      "constant": true,
      "inputs": [],
      "name": "hasActiveOperator",
      "outputs": [
        {
          "internalType": "bool",
          "name": "ok",
          "type": "bool"
        }
      ],
      "payable": false,
      "stateMutability": "view",
      "type": "function"
    },
    {
      "constant": true,
      "inputs": [],
      "name": "getOperator",
      "outputs": [
        {
          "internalType": "address",
          "name": "operator",
          "type": "address"
        }
      ],
      "payable": false,
      "stateMutability": "view",
      "type": "function"
    },
    {
      "constant": true,
      "inputs": [
        {
          "internalType": "address",
          "name": "caller",
          "type": "address"
        }
      ],
      "name": "isCreator",
      "outputs": [
        {
          "internalType": "bool",
          "name": "ok",
          "type": "bool"
        }
      ],
      "payable": false,
      "stateMutability": "view",
      "type": "function"
    },
    {
      "anonymous": false,
      "inputs": [
        {
          "indexed": false,
          "internalType": "address",
          "name": "operator",
          "type": "address"
        },
        {
          "indexed": false,
          "internalType": "address",
          "name": "staker",
          "type": "address"
        },
        {
          "indexed": false,
          "internalType": "address",
          "name": "counterparty",
          "type": "address"
        },
        {
          "indexed": false,
          "internalType": "uint256",
          "name": "ratio",
          "type": "uint256"
        },
        {
          "indexed": false,
          "internalType": "enum Griefing.RatioType",
          "name": "ratioType",
          "type": "uint8"
        },
        {
          "indexed": false,
          "internalType": "bytes",
          "name": "metadata",
          "type": "bytes"
        }
      ],
      "name": "Initialized",
      "type": "event"
    },
    {
      "anonymous": false,
      "inputs": [
        {
          "indexed": false,
          "internalType": "address",
          "name": "operator",
          "type": "address"
        },
        {
          "indexed": false,
          "internalType": "bool",
          "name": "status",
          "type": "bool"
        }
      ],
      "name": "OperatorUpdated",
      "type": "event"
    },
    {
      "anonymous": false,
      "inputs": [
        {
          "indexed": false,
          "internalType": "bytes",
          "name": "metadata",
          "type": "bytes"
        }
      ],
      "name": "MetadataSet",
      "type": "event"
    },
    {
      "anonymous": false,
      "inputs": [
        {
          "indexed": false,
          "internalType": "address",
          "name": "staker",
          "type": "address"
        },
        {
          "indexed": false,
          "internalType": "uint256",
          "name": "ratio",
          "type": "uint256"
        },
        {
          "indexed": false,
          "internalType": "enum Griefing.RatioType",
          "name": "ratioType",
          "type": "uint8"
        }
      ],
      "name": "RatioSet",
      "type": "event"
    },
    {
      "anonymous": false,
      "inputs": [
        {
          "indexed": false,
          "internalType": "address",
          "name": "punisher",
          "type": "address"
        },
        {
          "indexed": false,
          "internalType": "address",
          "name": "staker",
          "type": "address"
        },
        {
          "indexed": false,
          "internalType": "uint256",
          "name": "punishment",
          "type": "uint256"
        },
        {
          "indexed": false,
          "internalType": "uint256",
          "name": "cost",
          "type": "uint256"
        },
        {
          "indexed": false,
          "internalType": "bytes",
          "name": "message",
          "type": "bytes"
        }
      ],
      "name": "Griefed",
      "type": "event"
    },
    {
      "anonymous": false,
      "inputs": [
        {
          "indexed": false,
          "internalType": "address",
          "name": "staker",
          "type": "address"
        },
        {
          "indexed": false,
          "internalType": "address",
          "name": "funder",
          "type": "address"
        },
        {
          "indexed": false,
          "internalType": "uint256",
          "name": "amount",
          "type": "uint256"
        },
        {
          "indexed": false,
          "internalType": "uint256",
          "name": "newStake",
          "type": "uint256"
        }
      ],
      "name": "StakeAdded",
      "type": "event"
    },
    {
      "anonymous": false,
      "inputs": [
        {
          "indexed": false,
          "internalType": "address",
          "name": "staker",
          "type": "address"
        },
        {
          "indexed": false,
          "internalType": "address",
          "name": "recipient",
          "type": "address"
        },
        {
          "indexed": false,
          "internalType": "uint256",
          "name": "amount",
          "type": "uint256"
        },
        {
          "indexed": false,
          "internalType": "uint256",
          "name": "newStake",
          "type": "uint256"
        }
      ],
      "name": "StakeTaken",
      "type": "event"
    },
    {
      "anonymous": false,
      "inputs": [
        {
          "indexed": false,
          "internalType": "address",
          "name": "staker",
          "type": "address"
        },
        {
          "indexed": false,
          "internalType": "uint256",
          "name": "amount",
          "type": "uint256"
        },
        {
          "indexed": false,
          "internalType": "uint256",
          "name": "newStake",
          "type": "uint256"
        }
      ],
      "name": "StakeBurned",
      "type": "event"
    },
    {
      "constant": false,
      "inputs": [
        {
          "internalType": "address",
          "name": "operator",
          "type": "address"
        },
        {
          "internalType": "address",
          "name": "staker",
          "type": "address"
        },
        {
          "internalType": "address",
          "name": "counterparty",
          "type": "address"
        },
        {
          "internalType": "uint256",
          "name": "ratio",
          "type": "uint256"
        },
        {
          "internalType": "enum Griefing.RatioType",
          "name": "ratioType",
          "type": "uint8"
        },
        {
          "internalType": "bytes",
          "name": "metadata",
          "type": "bytes"
        }
      ],
      "name": "initialize",
      "outputs": [],
      "payable": false,
      "stateMutability": "nonpayable",
      "type": "function"
    },
    {
      "constant": false,
      "inputs": [
        {
          "internalType": "bytes",
          "name": "metadata",
          "type": "bytes"
        }
      ],
      "name": "setMetadata",
      "outputs": [],
      "payable": false,
      "stateMutability": "nonpayable",
      "type": "function"
    },
    {
      "constant": false,
      "inputs": [
        {
          "internalType": "uint256",
          "name": "currentStake",
          "type": "uint256"
        },
        {
          "internalType": "uint256",
          "name": "amountToAdd",
          "type": "uint256"
        }
      ],
      "name": "increaseStake",
      "outputs": [],
      "payable": false,
      "stateMutability": "nonpayable",
      "type": "function"
    },
    {
      "constant": false,
      "inputs": [
        {
          "internalType": "uint256",
          "name": "currentStake",
          "type": "uint256"
        },
        {
          "internalType": "uint256",
          "name": "amountToAdd",
          "type": "uint256"
        }
      ],
      "name": "reward",
      "outputs": [],
      "payable": false,
      "stateMutability": "nonpayable",
      "type": "function"
    },
    {
      "constant": false,
      "inputs": [
        {
          "internalType": "uint256",
          "name": "currentStake",
          "type": "uint256"
        },
        {
          "internalType": "uint256",
          "name": "punishment",
          "type": "uint256"
        },
        {
          "internalType": "bytes",
          "name": "message",
          "type": "bytes"
        }
      ],
      "name": "punish",
      "outputs": [
        {
          "internalType": "uint256",
          "name": "cost",
          "type": "uint256"
        }
      ],
      "payable": false,
      "stateMutability": "nonpayable",
      "type": "function"
    },
    {
      "constant": false,
      "inputs": [
        {
          "internalType": "uint256",
          "name": "currentStake",
          "type": "uint256"
        },
        {
          "internalType": "uint256",
          "name": "amountToRelease",
          "type": "uint256"
        }
      ],
      "name": "releaseStake",
      "outputs": [],
      "payable": false,
      "stateMutability": "nonpayable",
      "type": "function"
    },
    {
      "constant": false,
      "inputs": [
        {
          "internalType": "address",
          "name": "operator",
          "type": "address"
        }
      ],
      "name": "transferOperator",
      "outputs": [],
      "payable": false,
      "stateMutability": "nonpayable",
      "type": "function"
    },
    {
      "constant": false,
      "inputs": [],
      "name": "renounceOperator",
      "outputs": [],
      "payable": false,
      "stateMutability": "nonpayable",
      "type": "function"
    },
    {
      "constant": true,
      "inputs": [
        {
          "internalType": "address",
          "name": "caller",
          "type": "address"
        }
      ],
      "name": "isStaker",
      "outputs": [
        {
          "internalType": "bool",
          "name": "validity",
          "type": "bool"
        }
      ],
      "payable": false,
      "stateMutability": "view",
      "type": "function"
    },
    {
      "constant": true,
      "inputs": [
        {
          "internalType": "address",
          "name": "caller",
          "type": "address"
        }
      ],
      "name": "isCounterparty",
      "outputs": [
        {
          "internalType": "bool",
          "name": "validity",
          "type": "bool"
        }
      ],
      "payable": false,
      "stateMutability": "view",
      "type": "function"
    }
  ],
  "bytecode": "0x608060405234801561001057600080fd5b5061305e806100206000396000f3fe608060405234801561001057600080fd5b50600436106101425760003560e01c80636f1e8533116100b8578063923b17621161007c578063923b1762146107a7578063a4fa8d57146107c9578063bec10cde14610801578063e7f43c6814610839578063ee57e36f14610883578063efd460651461093e57610142565b80636f1e8533146105e057806373f500af1461063c578063754b2707146106985780637a7664601461070557806388cc58e41461075d57610142565b80633367cca51161010a5780633367cca51461030c5780633d806d6714610368578063465b414e1461049a5780634a66db95146104f35780635baeb8061461052b5780636d70f7ae1461058457610142565b80630ee2cb10146101475780630fc15f201461019157806321df0da71461027457806329605e77146102be5780632ab6f8db14610302575b600080fd5b61014f61099a565b604051808273ffffffffffffffffffffffffffffffffffffffff1673ffffffffffffffffffffffffffffffffffffffff16815260200191505060405180910390f35b61025e600480360360608110156101a757600080fd5b810190808035906020019092919080359060200190929190803590602001906401000000008111156101d857600080fd5b8201836020820111156101ea57600080fd5b8035906020019184600183028401116401000000008311171561020c57600080fd5b91908080601f016020809104026020016040519081016040528093929190818152602001838380828437600081840152601f19601f820116905080830192505050505050509192919290505050610a7b565b6040518082815260200191505060405180910390f35b61027c610b26565b604051808273ffffffffffffffffffffffffffffffffffffffff1673ffffffffffffffffffffffffffffffffffffffff16815260200191505060405180910390f35b610300600480360360208110156102d457600080fd5b81019080803573ffffffffffffffffffffffffffffffffffffffff169060200190929190505050610b42565b005b61030a610bc9565b005b61034e6004803603602081101561032257600080fd5b81019080803573ffffffffffffffffffffffffffffffffffffffff169060200190929190505050610c4e565b604051808215151515815260200191505060405180910390f35b610498600480360360c081101561037e57600080fd5b81019080803573ffffffffffffffffffffffffffffffffffffffff169060200190929190803573ffffffffffffffffffffffffffffffffffffffff169060200190929190803573ffffffffffffffffffffffffffffffffffffffff16906020019092919080359060200190929190803560ff1690602001909291908035906020019064010000000081111561041257600080fd5b82018360208201111561042457600080fd5b8035906020019184600183028401116401000000008311171561044657600080fd5b91908080601f016020809104026020016040519081016040528093929190818152602001838380828437600081840152601f19601f820116905080830192505050505050509192919290505050610c70565b005b6104dd600480360360608110156104b057600080fd5b810190808035906020019092919080359060200190929190803560ff169060200190929190505050610f61565b6040518082815260200191505060405180910390f35b6105296004803603604081101561050957600080fd5b81019080803590602001909291908035906020019092919050505061104c565b005b61056e6004803603606081101561054157600080fd5b810190808035906020019092919080359060200190929190803560ff169060200190929190505050611114565b6040518082815260200191505060405180910390f35b6105c66004803603602081101561059a57600080fd5b81019080803573ffffffffffffffffffffffffffffffffffffffff169060200190929190505050611247565b604051808215151515815260200191505060405180910390f35b610622600480360360208110156105f657600080fd5b81019080803573ffffffffffffffffffffffffffffffffffffffff169060200190929190505050611286565b604051808215151515815260200191505060405180910390f35b61067e6004803603602081101561065257600080fd5b81019080803573ffffffffffffffffffffffffffffffffffffffff1690602001909291905050506112e3565b604051808215151515815260200191505060405180910390f35b6106da600480360360208110156106ae57600080fd5b81019080803573ffffffffffffffffffffffffffffffffffffffff169060200190929190505050611340565b604051808381526020018260028111156106f057fe5b60ff1681526020019250505060405180910390f35b6107476004803603602081101561071b57600080fd5b81019080803573ffffffffffffffffffffffffffffffffffffffff1690602001909291905050506113df565b6040518082815260200191505060405180910390f35b610765611427565b604051808273ffffffffffffffffffffffffffffffffffffffff1673ffffffffffffffffffffffffffffffffffffffff16815260200191505060405180910390f35b6107af611451565b604051808215151515815260200191505060405180910390f35b6107ff600480360360408110156107df57600080fd5b810190808035906020019092919080359060200190929190505050611468565b005b6108376004803603604081101561081757600080fd5b81019080803590602001909291908035906020019092919050505061150b565b005b6108416115cb565b604051808273ffffffffffffffffffffffffffffffffffffffff1673ffffffffffffffffffffffffffffffffffffffff16815260200191505060405180910390f35b61093c6004803603602081101561089957600080fd5b81019080803590602001906401000000008111156108b657600080fd5b8201836020820111156108c857600080fd5b803590602001918460018302840111640100000000831117156108ea57600080fd5b91908080601f016020809104026020016040519081016040528093929190818152602001838380828437600081840152601f19601f8201169050808301925050505050505091929192905050506115f5565b005b6109806004803603602081101561095457600080fd5b81019080803573ffffffffffffffffffffffffffffffffffffffff16906020019092919050505061168c565b604051808215151515815260200191505060405180910390f35b6000600360009054906101000a900473ffffffffffffffffffffffffffffffffffffffff1673ffffffffffffffffffffffffffffffffffffffff16636bf71982306040518263ffffffff1660e01b8152600401808273ffffffffffffffffffffffffffffffffffffffff1673ffffffffffffffffffffffffffffffffffffffff16815260200191505060206040518083038186803b158015610a3b57600080fd5b505afa158015610a4f573d6000803e3d6000fd5b505050506040513d6020811015610a6557600080fd5b8101908080519060200190929190505050905090565b6000610a86336112e3565b80610a965750610a9533610c4e565b5b610aeb576040517f08c379a0000000000000000000000000000000000000000000000000000000008152600401808060200182810382526024815260200180612f4c6024913960400191505060405180910390fd5b610b1d33600460000160009054906101000a900473ffffffffffffffffffffffffffffffffffffffff168686866116cb565b90509392505050565b6000731776e1f26f98b1a5df9cd347953a26dd3cb46671905090565b610b4b33610c4e565b610bbd576040517f08c379a00000000000000000000000000000000000000000000000000000000081526004018080602001828103825260148152602001807f6f6e6c7920616374697665206f70657261746f7200000000000000000000000081525060200191505060405180910390fd5b610bc6816119b4565b50565b610bd233610c4e565b610c44576040517f08c379a00000000000000000000000000000000000000000000000000000000081526004018080602001828103825260148152602001807f6f6e6c7920616374697665206f70657261746f7200000000000000000000000081525060200191505060405180910390fd5b610c4c611a85565b565b6000610c5982611247565b8015610c695750610c68611451565b5b9050919050565b33600360006101000a81548173ffffffffffffffffffffffffffffffffffffffff021916908373ffffffffffffffffffffffffffffffffffffffff1602179055506000303b905060008163ffffffff1614610d16576040517f08c379a000000000000000000000000000000000000000000000000000000000815260040180806020018281038252602a815260200180612fb3602a913960400191505060405180910390fd5b85600460000160006101000a81548173ffffffffffffffffffffffffffffffffffffffff021916908373ffffffffffffffffffffffffffffffffffffffff16021790555084600460010160006101000a81548173ffffffffffffffffffffffffffffffffffffffff021916908373ffffffffffffffffffffffffffffffffffffffff160217905550600073ffffffffffffffffffffffffffffffffffffffff168773ffffffffffffffffffffffffffffffffffffffff1614610de457610ddb87611bce565b610de3611d4c565b5b610def868585611e76565b6000825114610e0257610e0182612040565b5b7f4452a6b21d8447ae04b441ac37676250e2bfdc827a149309429a5c640bf71209878787878787604051808773ffffffffffffffffffffffffffffffffffffffff1673ffffffffffffffffffffffffffffffffffffffff1681526020018673ffffffffffffffffffffffffffffffffffffffff1673ffffffffffffffffffffffffffffffffffffffff1681526020018573ffffffffffffffffffffffffffffffffffffffff1673ffffffffffffffffffffffffffffffffffffffff168152602001848152602001836002811115610ed557fe5b60ff16815260200180602001828103825283818151815260200191508051906020019080838360005b83811015610f19578082015181840152602081019050610efe565b50505050905090810190601f168015610f465780820380516001836020036101000a031916815260200191505b5097505050505050505060405180910390a150505050505050565b6000600280811115610f6f57fe5b826002811115610f7b57fe5b1415610fac576012600a0a610f9d610f97856012600a0a6120df565b86612165565b81610fa457fe5b049050611045565b60016002811115610fb957fe5b826002811115610fc557fe5b1415610fd45760009050611045565b60006002811115610fe157fe5b826002811115610fed57fe5b1415611044576040517f08c379a0000000000000000000000000000000000000000000000000000000008152600401808060200182810382526021815260200180612fdd6021913960400191505060405180910390fd5b5b9392505050565b611055336112e3565b80611065575061106433610c4e565b5b6110ba576040517f08c379a0000000000000000000000000000000000000000000000000000000008152600401808060200182810382526024815260200180612f4c6024913960400191505060405180910390fd5b611110600460000160009054906101000a900473ffffffffffffffffffffffffffffffffffffffff16600460000160009054906101000a900473ffffffffffffffffffffffffffffffffffffffff16848461219d565b5050565b600060028081111561112257fe5b82600281111561112e57fe5b141561115f576012600a0a61115061114a856012600a0a6120df565b86612562565b8161115757fe5b049050611240565b6001600281111561116c57fe5b82600281111561117857fe5b14156111cf576040517f08c379a0000000000000000000000000000000000000000000000000000000008152600401808060200182810382526021815260200180612f096021913960400191505060405180910390fd5b600060028111156111dc57fe5b8260028111156111e857fe5b141561123f576040517f08c379a0000000000000000000000000000000000000000000000000000000008152600401808060200182810382526021815260200180612fdd6021913960400191505060405180910390fd5b5b9392505050565b60006112516115cb565b73ffffffffffffffffffffffffffffffffffffffff168273ffffffffffffffffffffffffffffffffffffffff16149050919050565b6000600460000160009054906101000a900473ffffffffffffffffffffffffffffffffffffffff1673ffffffffffffffffffffffffffffffffffffffff168273ffffffffffffffffffffffffffffffffffffffff16149050919050565b6000600460010160009054906101000a900473ffffffffffffffffffffffffffffffffffffffff1673ffffffffffffffffffffffffffffffffffffffff168273ffffffffffffffffffffffffffffffffffffffff16149050919050565b600080600160008473ffffffffffffffffffffffffffffffffffffffff1673ffffffffffffffffffffffffffffffffffffffff168152602001908152602001600020600001549150600160008473ffffffffffffffffffffffffffffffffffffffff1673ffffffffffffffffffffffffffffffffffffffff16815260200190815260200160002060010160009054906101000a900460ff169050915091565b60008060008373ffffffffffffffffffffffffffffffffffffffff1673ffffffffffffffffffffffffffffffffffffffff168152602001908152602001600020549050919050565b6000600360009054906101000a900473ffffffffffffffffffffffffffffffffffffffff16905090565b6000600260149054906101000a900460ff16905090565b611471336112e3565b80611481575061148033610c4e565b5b6114d6576040517f08c379a0000000000000000000000000000000000000000000000000000000008152600401808060200182810382526024815260200180612f4c6024913960400191505060405180910390fd5b611507600460000160009054906101000a900473ffffffffffffffffffffffffffffffffffffffff16338484612596565b5050565b61151433611286565b80611524575061152333610c4e565b5b611596576040517f08c379a000000000000000000000000000000000000000000000000000000000815260040180806020018281038252601e8152602001807f6f6e6c79207374616b6572206f7220616374697665206f70657261746f72000081525060200191505060405180910390fd5b6115c7600460000160009054906101000a900473ffffffffffffffffffffffffffffffffffffffff16338484612596565b5050565b6000600260009054906101000a900473ffffffffffffffffffffffffffffffffffffffff16905090565b6115fe33611286565b8061160e575061160d33610c4e565b5b611680576040517f08c379a000000000000000000000000000000000000000000000000000000000815260040180806020018281038252601e8152602001807f6f6e6c79207374616b6572206f7220616374697665206f70657261746f72000081525060200191505060405180910390fd5b61168981612040565b50565b600061169661099a565b73ffffffffffffffffffffffffffffffffffffffff168273ffffffffffffffffffffffffffffffffffffffff16149050919050565b60006116d6856113df565b84111561174b576040517f08c379a00000000000000000000000000000000000000000000000000000000081526004018080602001828103825260178152602001807f63757272656e74207374616b6520696e636f727265637400000000000000000081525060200191505060405180910390fd5b6000600160008773ffffffffffffffffffffffffffffffffffffffff1673ffffffffffffffffffffffffffffffffffffffff1681526020019081526020016000206000015490506000600160008873ffffffffffffffffffffffffffffffffffffffff1673ffffffffffffffffffffffffffffffffffffffff16815260200190815260200160002060010160009054906101000a900460ff169050600060028111156117f357fe5b8160028111156117ff57fe5b1415611873576040517f08c379a00000000000000000000000000000000000000000000000000000000081526004018080602001828103825260158152602001807f6e6f2070756e6973686d656e7420616c6c6f776564000000000000000000000081525060200191505060405180910390fd5b61187e828683610f61565b925061188a8884612936565b611895878787612a82565b7fca93c648a4546f2ae486b9140f0082ced75a2664a663c8882b8b3545cddfeeb18888878688604051808673ffffffffffffffffffffffffffffffffffffffff1673ffffffffffffffffffffffffffffffffffffffff1681526020018573ffffffffffffffffffffffffffffffffffffffff1673ffffffffffffffffffffffffffffffffffffffff16815260200184815260200183815260200180602001828103825283818151815260200191508051906020019080838360005b8381101561196b578082015181840152602081019050611950565b50505050905090810190601f1680156119985780820380516001836020036101000a031916815260200191505b50965050505050505060405180910390a1505095945050505050565b600073ffffffffffffffffffffffffffffffffffffffff16600260009054906101000a900473ffffffffffffffffffffffffffffffffffffffff1673ffffffffffffffffffffffffffffffffffffffff161415611a79576040517f08c379a00000000000000000000000000000000000000000000000000000000081526004018080602001828103825260108152602001807f6f70657261746f72206e6f74207365740000000000000000000000000000000081525060200191505060405180910390fd5b611a8281611bce565b50565b611a8d611451565b611aff576040517f08c379a00000000000000000000000000000000000000000000000000000000081526004018080602001828103825260198152602001807f6f6e6c79207768656e206f70657261746f72206163746976650000000000000081525060200191505060405180910390fd5b6000600260006101000a81548173ffffffffffffffffffffffffffffffffffffffff021916908373ffffffffffffffffffffffffffffffffffffffff1602179055506000600260146101000a81548160ff0219169083151502179055507f966c160e1c4dbc7df8d69af4ace01e9297c3cf016397b7914971f2fbfa32672d600080604051808373ffffffffffffffffffffffffffffffffffffffff1673ffffffffffffffffffffffffffffffffffffffff168152602001821515151581526020019250505060405180910390a1565b8073ffffffffffffffffffffffffffffffffffffffff16600260009054906101000a900473ffffffffffffffffffffffffffffffffffffffff1673ffffffffffffffffffffffffffffffffffffffff161415611c92576040517f08c379a00000000000000000000000000000000000000000000000000000000081526004018080602001828103825260188152602001807f63616e6e6f74207365742073616d65206f70657261746f72000000000000000081525060200191505060405180910390fd5b80600260006101000a81548173ffffffffffffffffffffffffffffffffffffffff021916908373ffffffffffffffffffffffffffffffffffffffff1602179055507f966c160e1c4dbc7df8d69af4ace01e9297c3cf016397b7914971f2fbfa32672d81611cfd611451565b604051808373ffffffffffffffffffffffffffffffffffffffff1673ffffffffffffffffffffffffffffffffffffffff168152602001821515151581526020019250505060405180910390a150565b611d54611451565b15611dc7576040517f08c379a000000000000000000000000000000000000000000000000000000000815260040180806020018281038252601d8152602001807f6f6e6c79207768656e206f70657261746f72206e6f742061637469766500000081525060200191505060405180910390fd5b6001600260146101000a81548160ff0219169083151502179055507f966c160e1c4dbc7df8d69af4ace01e9297c3cf016397b7914971f2fbfa32672d600260009054906101000a900473ffffffffffffffffffffffffffffffffffffffff166001604051808373ffffffffffffffffffffffffffffffffffffffff1673ffffffffffffffffffffffffffffffffffffffff168152602001821515151581526020019250505060405180910390a1565b60006002811115611e8357fe5b816002811115611e8f57fe5b1480611eb1575060016002811115611ea357fe5b816002811115611eaf57fe5b145b15611f105760008214611f0f576040517f08c379a000000000000000000000000000000000000000000000000000000000815260040180806020018281038252602c815260200180612ffe602c913960400191505060405180910390fd5b5b81600160008573ffffffffffffffffffffffffffffffffffffffff1673ffffffffffffffffffffffffffffffffffffffff1681526020019081526020016000206000018190555080600160008573ffffffffffffffffffffffffffffffffffffffff1673ffffffffffffffffffffffffffffffffffffffff16815260200190815260200160002060010160006101000a81548160ff02191690836002811115611fb557fe5b02179055507fc964ed8af672f908dc7ba57f61d45a87a7e179cecf5198e7b7d53c920d898f06838383604051808473ffffffffffffffffffffffffffffffffffffffff1673ffffffffffffffffffffffffffffffffffffffff16815260200183815260200182600281111561202657fe5b60ff168152602001935050505060405180910390a1505050565b7fbb39ebb37e60fb5d606ffdb749d2336e56b88e6c88c4bd6513b308f643186eed816040518080602001828103825283818151815260200191508051906020019080838360005b838110156120a2578082015181840152602081019050612087565b50505050905090810190601f1680156120cf5780820380516001836020036101000a031916815260200191505b509250505060405180910390a150565b6000808314156120f2576000905061215f565b600082840290508284828161210357fe5b041461215a576040517f08c379a0000000000000000000000000000000000000000000000000000000008152600401808060200182810382526021815260200180612f706021913960400191505060405180910390fd5b809150505b92915050565b60006012600a0a61218d61217985856120df565b60026012600a0a8161218757fe5b04612ce0565b8161219457fe5b04905092915050565b6000808573ffffffffffffffffffffffffffffffffffffffff1673ffffffffffffffffffffffffffffffffffffffff168152602001908152602001600020548214612250576040517f08c379a00000000000000000000000000000000000000000000000000000000081526004018080602001828103825260178152602001807f63757272656e74207374616b6520696e636f727265637400000000000000000081525060200191505060405180910390fd5b600081116122c6576040517f08c379a00000000000000000000000000000000000000000000000000000000081526004018080602001828103825260108152602001807f6e6f207374616b6520746f2074616b650000000000000000000000000000000081525060200191505060405180910390fd5b8181111561231f576040517f08c379a0000000000000000000000000000000000000000000000000000000008152600401808060200182810382526022815260200180612f2a6022913960400191505060405180910390fd5b60006123348284612d6890919063ffffffff16565b9050806000808773ffffffffffffffffffffffffffffffffffffffff1673ffffffffffffffffffffffffffffffffffffffff16815260200190815260200160002081905550612381610b26565b73ffffffffffffffffffffffffffffffffffffffff1663a9059cbb85846040518363ffffffff1660e01b8152600401808373ffffffffffffffffffffffffffffffffffffffff1673ffffffffffffffffffffffffffffffffffffffff16815260200182815260200192505050602060405180830381600087803b15801561240757600080fd5b505af115801561241b573d6000803e3d6000fd5b505050506040513d602081101561243157600080fd5b81019080805190602001909291905050506124b4576040517f08c379a00000000000000000000000000000000000000000000000000000000081526004018080602001828103825260158152602001807f746f6b656e207472616e73666572206661696c6564000000000000000000000081525060200191505060405180910390fd5b7f79cb01d8e263c1d344176f9a596b5a6aa14a7df350a227e2e7df836a087b566185858484604051808573ffffffffffffffffffffffffffffffffffffffff1673ffffffffffffffffffffffffffffffffffffffff1681526020018473ffffffffffffffffffffffffffffffffffffffff1673ffffffffffffffffffffffffffffffffffffffff16815260200183815260200182815260200194505050505060405180910390a15050505050565b600081612586612576856012600a0a6120df565b6002858161258057fe5b04612ce0565b8161258d57fe5b04905092915050565b6000808573ffffffffffffffffffffffffffffffffffffffff1673ffffffffffffffffffffffffffffffffffffffff168152602001908152602001600020548214612649576040517f08c379a00000000000000000000000000000000000000000000000000000000081526004018080602001828103825260178152602001807f63757272656e74207374616b6520696e636f727265637400000000000000000081525060200191505060405180910390fd5b600081116126bf576040517f08c379a000000000000000000000000000000000000000000000000000000000815260040180806020018281038252600f8152602001807f6e6f207374616b6520746f20616464000000000000000000000000000000000081525060200191505060405180910390fd5b60006126d48284612ce090919063ffffffff16565b9050806000808773ffffffffffffffffffffffffffffffffffffffff1673ffffffffffffffffffffffffffffffffffffffff16815260200190815260200160002081905550612721610b26565b73ffffffffffffffffffffffffffffffffffffffff166323b872dd8530856040518463ffffffff1660e01b8152600401808473ffffffffffffffffffffffffffffffffffffffff1673ffffffffffffffffffffffffffffffffffffffff1681526020018373ffffffffffffffffffffffffffffffffffffffff1673ffffffffffffffffffffffffffffffffffffffff1681526020018281526020019350505050602060405180830381600087803b1580156127db57600080fd5b505af11580156127ef573d6000803e3d6000fd5b505050506040513d602081101561280557600080fd5b8101908080519060200190929190505050612888576040517f08c379a00000000000000000000000000000000000000000000000000000000081526004018080602001828103825260158152602001807f746f6b656e207472616e73666572206661696c6564000000000000000000000081525060200191505060405180910390fd5b7fef7c8dfef14cbefdf829b8f066b068b677992411137321d64b3ed4538c2b363785858484604051808573ffffffffffffffffffffffffffffffffffffffff1673ffffffffffffffffffffffffffffffffffffffff1681526020018473ffffffffffffffffffffffffffffffffffffffff1673ffffffffffffffffffffffffffffffffffffffff16815260200183815260200182815260200194505050505060405180910390a15050505050565b731776e1f26f98b1a5df9cd347953a26dd3cb4667173ffffffffffffffffffffffffffffffffffffffff16637c8d56b883836040518363ffffffff1660e01b8152600401808373ffffffffffffffffffffffffffffffffffffffff1673ffffffffffffffffffffffffffffffffffffffff16815260200182815260200192505050602060405180830381600087803b1580156129d157600080fd5b505af11580156129e5573d6000803e3d6000fd5b505050506040513d60208110156129fb57600080fd5b8101908080519060200190929190505050612a7e576040517f08c379a00000000000000000000000000000000000000000000000000000000081526004018080602001828103825260138152602001807f6e6d72206275726e46726f6d206661696c65640000000000000000000000000081525060200191505060405180910390fd5b5050565b6000808473ffffffffffffffffffffffffffffffffffffffff1673ffffffffffffffffffffffffffffffffffffffff168152602001908152602001600020548214612b35576040517f08c379a00000000000000000000000000000000000000000000000000000000081526004018080602001828103825260178152602001807f63757272656e74207374616b6520696e636f727265637400000000000000000081525060200191505060405180910390fd5b60008111612bab576040517f08c379a00000000000000000000000000000000000000000000000000000000081526004018080602001828103825260108152602001807f6e6f207374616b6520746f206275726e0000000000000000000000000000000081525060200191505060405180910390fd5b81811115612c04576040517f08c379a0000000000000000000000000000000000000000000000000000000008152600401808060200182810382526022815260200180612f916022913960400191505060405180910390fd5b6000612c198284612d6890919063ffffffff16565b9050806000808673ffffffffffffffffffffffffffffffffffffffff1673ffffffffffffffffffffffffffffffffffffffff16815260200190815260200160002081905550612c6782612df1565b7ff470d7f6c239014b63db190652ebe51433a828b65e06d9972143c34c2e2ca3bc848383604051808473ffffffffffffffffffffffffffffffffffffffff1673ffffffffffffffffffffffffffffffffffffffff168152602001838152602001828152602001935050505060405180910390a150505050565b600080828401905083811015612d5e576040517f08c379a000000000000000000000000000000000000000000000000000000000815260040180806020018281038252601b8152602001807f536166654d6174683a206164646974696f6e206f766572666c6f77000000000081525060200191505060405180910390fd5b8091505092915050565b600082821115612de0576040517f08c379a000000000000000000000000000000000000000000000000000000000815260040180806020018281038252601e8152602001807f536166654d6174683a207375627472616374696f6e206f766572666c6f77000081525060200191505060405180910390fd5b600082840390508091505092915050565b731776e1f26f98b1a5df9cd347953a26dd3cb4667173ffffffffffffffffffffffffffffffffffffffff1663a0712d68826040518263ffffffff1660e01b815260040180828152602001915050602060405180830381600087803b158015612e5857600080fd5b505af1158015612e6c573d6000803e3d6000fd5b505050506040513d6020811015612e8257600080fd5b8101908080519060200190929190505050612f05576040517f08c379a000000000000000000000000000000000000000000000000000000000815260040180806020018281038252600f8152602001807f6e6d72206275726e206661696c6564000000000000000000000000000000000081525060200191505060405180910390fd5b5056fe726174696f547970652063616e6e6f7420626520526174696f547970652e496e6663616e6e6f742074616b65206d6f7265207468616e2063757272656e745374616b656f6e6c7920636f756e7465727061727479206f7220616374697665206f70657261746f72536166654d6174683a206d756c7469706c69636174696f6e206f766572666c6f7763616e6e6f74206275726e206d6f7265207468616e2063757272656e745374616b656d7573742062652063616c6c65642077697468696e20636f6e747261637420636f6e7374727563746f72726174696f547970652063616e6e6f7420626520526174696f547970652e4e614e726174696f206d7573742062652030207768656e20726174696f54797065206973204e614e206f7220496e66a265627a7a723158206555db7ec3b7bc51bd2814ca0f867a6b27b0195f5c2ff65b716d80491b766e4764736f6c634300050b0032",
  "source": "pragma solidity ^0.5.0;\n\nimport \"../helpers/openzeppelin-solidity/math/SafeMath.sol\";\nimport \"../helpers/openzeppelin-solidity/token/ERC20/IERC20.sol\";\nimport \"../modules/Countdown.sol\";\nimport \"../modules/Griefing.sol\";\nimport \"../modules/EventMetadata.sol\";\nimport \"../modules/Operated.sol\";\nimport \"../modules/Template.sol\";\n\n/* Immediately engage with specific buyer\n * - Stake can be increased at any time.\n * - Counterparty can greif the staker at predefined ratio.\n *\n * NOTE:\n * - This top level contract should only perform access control and state transitions\n *\n */\ncontract SimpleGriefing is Griefing, EventMetadata, Operated, Template {\n\n    using SafeMath for uint256;\n\n    Data private _data;\n    struct Data {\n        address staker;\n        address counterparty;\n    }\n\n    event Initialized(address operator, address staker, address counterparty, uint256 ratio, Griefing.RatioType ratioType, bytes metadata);\n\n    function initialize(\n        address operator,\n        address staker,\n        address counterparty,\n        uint256 ratio,\n        Griefing.RatioType ratioType,\n        bytes memory metadata\n    ) public initializeTemplate() {\n        // set storage values\n        _data.staker = staker;\n        _data.counterparty = counterparty;\n\n        // set operator\n        if (operator != address(0)) {\n            Operated._setOperator(operator);\n            Operated._activateOperator();\n        }\n\n        // set griefing ratio\n        Griefing._setRatio(staker, ratio, ratioType);\n\n        // set metadata\n        if (metadata.length != 0) {\n            EventMetadata._setMetadata(metadata);\n        }\n\n        // log initialization params\n        emit Initialized(operator, staker, counterparty, ratio, ratioType, metadata);\n    }\n\n    // state functions\n\n    function setMetadata(bytes memory metadata) public {\n        // restrict access\n        require(isStaker(msg.sender) || Operated.isActiveOperator(msg.sender), \"only staker or active operator\");\n\n        // update metadata\n        EventMetadata._setMetadata(metadata);\n    }\n\n    function increaseStake(uint256 currentStake, uint256 amountToAdd) public {\n        // restrict access\n        require(isStaker(msg.sender) || Operated.isActiveOperator(msg.sender), \"only staker or active operator\");\n\n        // add stake\n        Staking._addStake(_data.staker, msg.sender, currentStake, amountToAdd);\n    }\n\n    function reward(uint256 currentStake, uint256 amountToAdd) public {\n        // restrict access\n        require(isCounterparty(msg.sender) || Operated.isActiveOperator(msg.sender), \"only counterparty or active operator\");\n\n        // add stake\n        Staking._addStake(_data.staker, msg.sender, currentStake, amountToAdd);\n    }\n\n    function punish(uint256 currentStake, uint256 punishment, bytes memory message) public returns (uint256 cost) {\n        // restrict access\n        require(isCounterparty(msg.sender) || Operated.isActiveOperator(msg.sender), \"only counterparty or active operator\");\n\n        // execute griefing\n        cost = Griefing._grief(msg.sender, _data.staker, currentStake, punishment, message);\n    }\n\n    function releaseStake(uint256 currentStake, uint256 amountToRelease) public {\n        // restrict access\n        require(isCounterparty(msg.sender) || Operated.isActiveOperator(msg.sender), \"only counterparty or active operator\");\n\n        // release stake back to the staker\n        Staking._takeStake(_data.staker, _data.staker, currentStake, amountToRelease);\n    }\n\n    function transferOperator(address operator) public {\n        // restrict access\n        require(Operated.isActiveOperator(msg.sender), \"only active operator\");\n\n        // transfer operator\n        Operated._transferOperator(operator);\n    }\n\n    function renounceOperator() public {\n        // restrict access\n        require(Operated.isActiveOperator(msg.sender), \"only active operator\");\n\n        // transfer operator\n        Operated._renounceOperator();\n    }\n\n    // view functions\n\n    function isStaker(address caller) public view returns (bool validity) {\n        validity = (caller == _data.staker);\n    }\n\n    function isCounterparty(address caller) public view returns (bool validity) {\n        validity = (caller == _data.counterparty);\n    }\n}\n",
  "sourcePath": "/Users/thegostep/github/erasure-protocol/contracts/agreements/SimpleGriefing.sol",
  "compiler": {
    "name": "solc",
    "version": "0.5.11+commit.c082d0b4.Emscripten.clang",
    "optimizer": false,
    "runs": 200
  },
  "schemaVersion": "2.2.0",
  "updatedAt": "2019-09-24T17:30:40.610Z"
}