{
  "contractName": "SimpleGriefing_Factory",
  "abi": [
    {
      "constant": true,
      "inputs": [],
      "name": "getInstanceType",
      "outputs": [
        {
          "internalType": "bytes4",
          "name": "instanceType",
          "type": "bytes4"
        }
      ],
      "payable": false,
      "stateMutability": "view",
      "type": "function"
    },
    {
      "constant": true,
      "inputs": [],
      "name": "getTemplate",
      "outputs": [
        {
          "internalType": "address",
          "name": "template",
          "type": "address"
        }
      ],
      "payable": false,
      "stateMutability": "view",
      "type": "function"
    },
    {
      "constant": true,
      "inputs": [],
      "name": "getInitSelector",
      "outputs": [
        {
          "internalType": "bytes4",
          "name": "initSelector",
          "type": "bytes4"
        }
      ],
      "payable": false,
      "stateMutability": "view",
      "type": "function"
    },
    {
      "constant": false,
      "inputs": [
        {
          "internalType": "bytes",
          "name": "callData",
          "type": "bytes"
        },
        {
          "internalType": "bytes32",
          "name": "salt",
          "type": "bytes32"
        }
      ],
      "name": "createSalty",
      "outputs": [
        {
          "internalType": "address",
          "name": "instance",
          "type": "address"
        }
      ],
      "payable": false,
      "stateMutability": "nonpayable",
      "type": "function"
    },
    {
      "constant": true,
      "inputs": [
        {
          "internalType": "address",
          "name": "instance",
          "type": "address"
        }
      ],
      "name": "getInstanceCreator",
      "outputs": [
        {
          "internalType": "address",
          "name": "creator",
          "type": "address"
        }
      ],
      "payable": false,
      "stateMutability": "view",
      "type": "function"
    },
    {
      "constant": true,
      "inputs": [
        {
          "internalType": "bytes",
          "name": "callData",
          "type": "bytes"
        }
      ],
      "name": "getNextInstance",
      "outputs": [
        {
          "internalType": "address",
          "name": "target",
          "type": "address"
        }
      ],
      "payable": false,
      "stateMutability": "view",
      "type": "function"
    },
    {
      "constant": true,
      "inputs": [],
      "name": "getInstanceRegistry",
      "outputs": [
        {
          "internalType": "address",
          "name": "instanceRegistry",
          "type": "address"
        }
      ],
      "payable": false,
      "stateMutability": "view",
      "type": "function"
    },
    {
      "constant": true,
      "inputs": [],
      "name": "getInstanceCount",
      "outputs": [
        {
          "internalType": "uint256",
          "name": "count",
          "type": "uint256"
        }
      ],
      "payable": false,
      "stateMutability": "view",
      "type": "function"
    },
    {
      "constant": true,
      "inputs": [
        {
          "internalType": "uint256",
          "name": "startIndex",
          "type": "uint256"
        },
        {
          "internalType": "uint256",
          "name": "endIndex",
          "type": "uint256"
        }
      ],
      "name": "getPaginatedInstances",
      "outputs": [
        {
          "internalType": "address[]",
          "name": "instances",
          "type": "address[]"
        }
      ],
      "payable": false,
      "stateMutability": "view",
      "type": "function"
    },
    {
      "constant": false,
      "inputs": [
        {
          "internalType": "bytes",
          "name": "callData",
          "type": "bytes"
        }
      ],
      "name": "create",
      "outputs": [
        {
          "internalType": "address",
          "name": "instance",
          "type": "address"
        }
      ],
      "payable": false,
      "stateMutability": "nonpayable",
      "type": "function"
    },
    {
      "constant": true,
      "inputs": [],
      "name": "getInstances",
      "outputs": [
        {
          "internalType": "address[]",
          "name": "instances",
          "type": "address[]"
        }
      ],
      "payable": false,
      "stateMutability": "view",
      "type": "function"
    },
    {
      "constant": true,
      "inputs": [
        {
          "internalType": "uint256",
          "name": "index",
          "type": "uint256"
        }
      ],
      "name": "getInstance",
      "outputs": [
        {
          "internalType": "address",
          "name": "instance",
          "type": "address"
        }
      ],
      "payable": false,
      "stateMutability": "view",
      "type": "function"
    },
    {
      "constant": true,
      "inputs": [
        {
          "internalType": "bytes",
          "name": "callData",
          "type": "bytes"
        },
        {
          "internalType": "bytes32",
          "name": "salt",
          "type": "bytes32"
        }
      ],
      "name": "getSaltyInstance",
      "outputs": [
        {
          "internalType": "address",
          "name": "target",
          "type": "address"
        }
      ],
      "payable": false,
      "stateMutability": "view",
      "type": "function"
    },
    {
      "inputs": [
        {
          "internalType": "address",
          "name": "instanceRegistry",
          "type": "address"
        },
        {
          "internalType": "address",
          "name": "templateContract",
          "type": "address"
        }
      ],
      "payable": false,
      "stateMutability": "nonpayable",
      "type": "constructor"
    },
    {
      "anonymous": false,
      "inputs": [
        {
          "indexed": true,
          "internalType": "address",
          "name": "instance",
          "type": "address"
        },
        {
          "indexed": true,
          "internalType": "address",
          "name": "creator",
          "type": "address"
        },
        {
          "indexed": false,
          "internalType": "bytes",
          "name": "callData",
          "type": "bytes"
        }
      ],
      "name": "InstanceCreated",
      "type": "event"
    }
  ],
  "bytecode": "0x60806040523480156200001157600080fd5b506040516200218a3803806200218a833981810160405260408110156200003757600080fd5b8101908080519060200190929190805190602001909291905050506000806040518060400160405280600981526020017f41677265656d656e74000000000000000000000000000000000000000000000081525080519060200120905060008273ffffffffffffffffffffffffffffffffffffffff16633d806d67905060e01b9050620000d285858484620000dd60201b620019621760201c565b5050505050620002d8565b83600360006101000a81548173ffffffffffffffffffffffffffffffffffffffff021916908373ffffffffffffffffffffffffffffffffffffffff16021790555082600260006101000a81548173ffffffffffffffffffffffffffffffffffffffff021916908373ffffffffffffffffffffffffffffffffffffffff16021790555080600260146101000a81548163ffffffff021916908360e01c02179055508373ffffffffffffffffffffffffffffffffffffffff166318c2f4cf6040518163ffffffff1660e01b815260040160206040518083038186803b158015620001c457600080fd5b505afa158015620001d9573d6000803e3d6000fd5b505050506040513d6020811015620001f057600080fd5b81019080805190602001909291905050507bffffffffffffffffffffffffffffffffffffffffffffffffffffffff1916827bffffffffffffffffffffffffffffffffffffffffffffffffffffffff191614620002b4576040517f08c379a00000000000000000000000000000000000000000000000000000000081526004018080602001828103825260178152602001807f696e636f727265637420696e7374616e6365207479706500000000000000000081525060200191505060405180910390fd5b81600360146101000a81548163ffffffff021916908360e01c021790555050505050565b611ea280620002e86000396000f3fe60806040523480156200001157600080fd5b5060043610620000e25760003560e01c8063a5e139041162000099578063cf5ba53f116200006f578063cf5ba53f1462000580578063d35fdd791462000681578063ebd348de14620006e4578063fbc6d07f146200075557620000e2565b8063a5e139041462000482578063ae34325c14620004ce578063b71f2e7214620004ee57620000e2565b806318c2f4cf14620000e7578063321c48f2146200014557806354ed633b14620001915780635ed75de214620001ef5780636bf7198214620002fa5780638359e1361462000381575b600080fd5b620000f162000860565b60405180827bffffffffffffffffffffffffffffffffffffffffffffffffffffffff19167bffffffffffffffffffffffffffffffffffffffffffffffffffffffff1916815260200191505060405180910390f35b6200014f62000877565b604051808273ffffffffffffffffffffffffffffffffffffffff1673ffffffffffffffffffffffffffffffffffffffff16815260200191505060405180910390f35b6200019b620008a1565b60405180827bffffffffffffffffffffffffffffffffffffffffffffffffffffffff19167bffffffffffffffffffffffffffffffffffffffffffffffffffffffff1916815260200191505060405180910390f35b620002b8600480360360408110156200020757600080fd5b81019080803590602001906401000000008111156200022557600080fd5b8201836020820111156200023857600080fd5b803590602001918460018302840111640100000000831117156200025b57600080fd5b91908080601f016020809104026020016040519081016040528093929190818152602001838380828437600081840152601f19601f82011690508083019250505050505050919291929080359060200190929190505050620008b8565b604051808273ffffffffffffffffffffffffffffffffffffffff1673ffffffffffffffffffffffffffffffffffffffff16815260200191505060405180910390f35b6200033f600480360360208110156200031257600080fd5b81019080803573ffffffffffffffffffffffffffffffffffffffff169060200190929190505050620008e4565b604051808273ffffffffffffffffffffffffffffffffffffffff1673ffffffffffffffffffffffffffffffffffffffff16815260200191505060405180910390f35b62000440600480360360208110156200039957600080fd5b8101908080359060200190640100000000811115620003b757600080fd5b820183602082011115620003ca57600080fd5b80359060200191846001830284011164010000000083111715620003ed57600080fd5b91908080601f016020809104026020016040519081016040528093929190818152602001838380828437600081840152601f19601f8201169050808301925050505050505091929192905050506200094d565b604051808273ffffffffffffffffffffffffffffffffffffffff1673ffffffffffffffffffffffffffffffffffffffff16815260200191505060405180910390f35b6200048c6200096b565b604051808273ffffffffffffffffffffffffffffffffffffffff1673ffffffffffffffffffffffffffffffffffffffff16815260200191505060405180910390f35b620004d862000995565b6040518082815260200191505060405180910390f35b62000527600480360360408110156200050657600080fd5b810190808035906020019092919080359060200190929190505050620009a1565b6040518080602001828103825283818151815260200191508051906020019060200280838360005b838110156200056c5780820151818401526020810190506200054f565b505050509050019250505060405180910390f35b6200063f600480360360208110156200059857600080fd5b8101908080359060200190640100000000811115620005b657600080fd5b820183602082011115620005c957600080fd5b80359060200191846001830284011164010000000083111715620005ec57600080fd5b91908080601f016020809104026020016040519081016040528093929190818152602001838380828437600081840152601f19601f82011690508083019250505050505050919291929050505062000b5a565b604051808273ffffffffffffffffffffffffffffffffffffffff1673ffffffffffffffffffffffffffffffffffffffff16815260200191505060405180910390f35b6200068b62000b84565b6040518080602001828103825283818151815260200191508051906020019060200280838360005b83811015620006d0578082015181840152602081019050620006b3565b505050509050019250505060405180910390f35b6200071360048036036020811015620006fc57600080fd5b810190808035906020019092919050505062000c14565b604051808273ffffffffffffffffffffffffffffffffffffffff1673ffffffffffffffffffffffffffffffffffffffff16815260200191505060405180910390f35b6200081e600480360360408110156200076d57600080fd5b81019080803590602001906401000000008111156200078b57600080fd5b8201836020820111156200079e57600080fd5b80359060200191846001830284011164010000000083111715620007c157600080fd5b91908080601f016020809104026020016040519081016040528093929190818152602001838380828437600081840152601f19601f8201169050808301925050505050505091929192908035906020019092919050505062000cd0565b604051808273ffffffffffffffffffffffffffffffffffffffff1673ffffffffffffffffffffffffffffffffffffffff16815260200191505060405180910390f35b6000600360149054906101000a900460e01b905090565b6000600260009054906101000a900473ffffffffffffffffffffffffffffffffffffffff16905090565b6000600260149054906101000a900460e01b905090565b6000620008d0620008c862000877565b848462000cf0565b9050620008de818462000f23565b92915050565b6000600160008373ffffffffffffffffffffffffffffffffffffffff1673ffffffffffffffffffffffffffffffffffffffff16815260200190815260200160002060009054906101000a900473ffffffffffffffffffffffffffffffffffffffff169050919050565b6000620009646200095d62000877565b83620011cf565b9050919050565b6000600360009054906101000a900473ffffffffffffffffffffffffffffffffffffffff16905090565b60008080549050905090565b6060818310620009fd576040517f08c379a000000000000000000000000000000000000000000000000000000000815260040180806020018281038252602581526020018062001df36025913960400191505060405180910390fd5b60008054905082111562000a79576040517f08c379a00000000000000000000000000000000000000000000000000000000081526004018080602001828103825260168152602001807f656e6420696e646578206f7574206f662072616e67650000000000000000000081525060200191505060405180910390fd5b606083830360405190808252806020026020018201604052801562000aad5781602001602082028038833980820191505090505b50905060008490505b8381101562000b4f576000818154811062000acd57fe5b9060005260206000200160009054906101000a900473ffffffffffffffffffffffffffffffffffffffff16828683038151811062000b0757fe5b602002602001019073ffffffffffffffffffffffffffffffffffffffff16908173ffffffffffffffffffffffffffffffffffffffff1681525050808060010191505062000ab6565b508091505092915050565b600062000b7162000b6a62000877565b836200138f565b905062000b7f818362000f23565b919050565b6060600080548060200260200160405190810160405280929190818152602001828054801562000c0a57602002820191906000526020600020905b8160009054906101000a900473ffffffffffffffffffffffffffffffffffffffff1673ffffffffffffffffffffffffffffffffffffffff168152602001906001019080831162000bbf575b5050505050905090565b60008080549050821062000c90576040517f08c379a00000000000000000000000000000000000000000000000000000000081526004018080602001828103825260128152602001807f696e646578206f7574206f662072616e6765000000000000000000000000000081525060200191505060405180910390fd5b6000828154811062000c9e57fe5b9060005260206000200160009054906101000a900473ffffffffffffffffffffffffffffffffffffffff169050919050565b600062000ce862000ce062000877565b848462001561565b905092915050565b600060606040518060200162000d069062001954565b6020820181038252601f19601f820116604052508585604051602001808373ffffffffffffffffffffffffffffffffffffffff1673ffffffffffffffffffffffffffffffffffffffff16815260200180602001828103825283818151815260200191508051906020019080838360005b8381101562000d9357808201518184015260208101905062000d76565b50505050905090810190601f16801562000dc15780820380516001836020036101000a031916815260200191505b5093505050506040516020818303038152906040526040516020018083805190602001908083835b6020831062000e0e578051825260208201915060208101905060208303925062000de9565b6001836020036101000a03801982511681845116808217855250505050505090500182805190602001908083835b6020831062000e61578051825260208201915060208101905060208303925062000e3c565b6001836020036101000a038019825116818451168082178552505050505050905001925050506040516020818303038152906040529050600062000ea786868662001561565b90506000813b90506000811462000f0a576040517f08c379a000000000000000000000000000000000000000000000000000000000815260040180806020018281038252602c81526020018062001e42602c913960400191505060405180910390fd5b62000f178386846200172c565b93505050509392505050565b60008290806001815401808255809150509060018203906000526020600020016000909192909190916101000a81548173ffffffffffffffffffffffffffffffffffffffff021916908373ffffffffffffffffffffffffffffffffffffffff1602179055505033600160008473ffffffffffffffffffffffffffffffffffffffff1673ffffffffffffffffffffffffffffffffffffffff16815260200190815260200160002060006101000a81548173ffffffffffffffffffffffffffffffffffffffff021916908373ffffffffffffffffffffffffffffffffffffffff160217905550620010116200096b565b73ffffffffffffffffffffffffffffffffffffffff1663bba83f64833360006040518463ffffffff1660e01b8152600401808473ffffffffffffffffffffffffffffffffffffffff1673ffffffffffffffffffffffffffffffffffffffff1681526020018373ffffffffffffffffffffffffffffffffffffffff1673ffffffffffffffffffffffffffffffffffffffff1681526020018269ffffffffffffffffffff1669ffffffffffffffffffff1681526020019350505050600060405180830381600087803b158015620010e557600080fd5b505af1158015620010fa573d6000803e3d6000fd5b505050503373ffffffffffffffffffffffffffffffffffffffff168273ffffffffffffffffffffffffffffffffffffffff167fab60131c1462939275d0fd3738e07ab853e22af6296cf75e71bbdf3a497791a2836040518080602001828103825283818151815260200191508051906020019080838360005b838110156200119057808201518184015260208101905062001173565b50505050905090810190601f168015620011be5780820380516001836020036101000a031916815260200191505b509250505060405180910390a35050565b6000606060405180602001620011e59062001954565b6020820181038252601f19601f820116604052508484604051602001808373ffffffffffffffffffffffffffffffffffffffff1673ffffffffffffffffffffffffffffffffffffffff16815260200180602001828103825283818151815260200191508051906020019080838360005b838110156200127257808201518184015260208101905062001255565b50505050905090810190601f168015620012a05780820380516001836020036101000a031916815260200191505b5093505050506040516020818303038152906040526040516020018083805190602001908083835b60208310620012ed5780518252602082019150602081019050602083039250620012c8565b6001836020036101000a03801982511681845116808217855250505050505090500182805190602001908083835b602083106200134057805182526020820191506020810190506020830392506200131b565b6001836020036101000a0380198251168184511680821785525050505050509050019250505060405160208183030381529060405290506200138281620017da565b9050809250505092915050565b6000606060405180602001620013a59062001954565b6020820181038252601f19601f820116604052508484604051602001808373ffffffffffffffffffffffffffffffffffffffff1673ffffffffffffffffffffffffffffffffffffffff16815260200180602001828103825283818151815260200191508051906020019080838360005b838110156200143257808201518184015260208101905062001415565b50505050905090810190601f168015620014605780820380516001836020036101000a031916815260200191505b5093505050506040516020818303038152906040526040516020018083805190602001908083835b60208310620014ad578051825260208201915060208101905060208303925062001488565b6001836020036101000a03801982511681845116808217855250505050505090500182805190602001908083835b60208310620015005780518252602082019150602081019050602083039250620014db565b6001836020036101000a0380198251168184511680821785525050505050509050019250505060405160208183030381529060405290506000806200154583620017da565b91509150620015568383836200172c565b935050505092915050565b6000606060405180602001620015779062001954565b6020820181038252601f19601f820116604052508585604051602001808373ffffffffffffffffffffffffffffffffffffffff1673ffffffffffffffffffffffffffffffffffffffff16815260200180602001828103825283818151815260200191508051906020019080838360005b8381101562001604578082015181840152602081019050620015e7565b50505050905090810190601f168015620016325780820380516001836020036101000a031916815260200191505b5093505050506040516020818303038152906040526040516020018083805190602001908083835b602083106200167f57805182526020820191506020810190506020830392506200165a565b6001836020036101000a03801982511681845116808217855250505050505090500182805190602001908083835b60208310620016d25780518252602082019150602081019050602083039250620016ad565b6001836020036101000a03801982511681845116808217855250505050505090500192505050604051602081830303815290604052905060008180519060200120905062001721818562001891565b925050509392505050565b600083602001845184818334f59250826200174b573d6000803e3d6000fd5b50508173ffffffffffffffffffffffffffffffffffffffff168173ffffffffffffffffffffffffffffffffffffffff1614620017d3576040517f08c379a000000000000000000000000000000000000000000000000000000000815260040180806020018281038252602a81526020018062001e18602a913960400191505060405180910390fd5b9392505050565b600080600083805190602001209050600080905060005b60011562001889573382604051602001808373ffffffffffffffffffffffffffffffffffffffff1673ffffffffffffffffffffffffffffffffffffffff1660601b81526014018281526020019250505060405160208183030381529060405280519060200120945062001865838662001891565b9350833b905060008114156200187b5762001889565b8180600101925050620017f1565b505050915091565b600060ff60f81b30838560405160200180857effffffffffffffffffffffffffffffffffffffffffffffffffffffffffffff19167effffffffffffffffffffffffffffffffffffffffffffffffffffffffffffff191681526001018473ffffffffffffffffffffffffffffffffffffffff1673ffffffffffffffffffffffffffffffffffffffff1660601b81526014018381526020018281526020019450505050506040516020818303038152906040528051906020012060001c905092915050565b6102958062001b5e83390190565b83600360006101000a81548173ffffffffffffffffffffffffffffffffffffffff021916908373ffffffffffffffffffffffffffffffffffffffff16021790555082600260006101000a81548173ffffffffffffffffffffffffffffffffffffffff021916908373ffffffffffffffffffffffffffffffffffffffff16021790555080600260146101000a81548163ffffffff021916908360e01c02179055508373ffffffffffffffffffffffffffffffffffffffff166318c2f4cf6040518163ffffffff1660e01b815260040160206040518083038186803b15801562001a4957600080fd5b505afa15801562001a5e573d6000803e3d6000fd5b505050506040513d602081101562001a7557600080fd5b81019080805190602001909291905050507bffffffffffffffffffffffffffffffffffffffffffffffffffffffff1916827bffffffffffffffffffffffffffffffffffffffffffffffffffffffff19161462001b39576040517f08c379a00000000000000000000000000000000000000000000000000000000081526004018080602001828103825260178152602001807f696e636f727265637420696e7374616e6365207479706500000000000000000081525060200191505060405180910390fd5b81600360146101000a81548163ffffffff021916908360e01c02179055505050505056fe60806040526040516102953803806102958339818101604052604081101561002657600080fd5b81019080805190602001909291908051604051939291908464010000000082111561005057600080fd5b8382019150602082018581111561006657600080fd5b825186600182028301116401000000008211171561008357600080fd5b8083526020830192505050908051906020019080838360005b838110156100b757808201518184015260208101905061009c565b50505050905090810190601f1680156100e45780820380516001836020036101000a031916815260200191505b5060405250505060008273ffffffffffffffffffffffffffffffffffffffff16826040518082805190602001908083835b602083106101385780518252602082019150602081019050602083039250610115565b6001836020036101000a038019825116818451168082178552505050505050905001915050600060405180830381855af49150503d8060008114610198576040519150601f19603f3d011682016040523d82523d6000602084013e61019d565b606091505b50509050806101b0573d6000803e3d6000fd5b606069363d3d373d3d3d363d7360b01b846e5af43d82803e903d91602b57fd5bf360881b604051602001808475ffffffffffffffffffffffffffffffffffffffffffff191675ffffffffffffffffffffffffffffffffffffffffffff19168152600a018373ffffffffffffffffffffffffffffffffffffffff1673ffffffffffffffffffffffffffffffffffffffff1660601b81526014018270ffffffffffffffffffffffffffffffffff191670ffffffffffffffffffffffffffffffffff19168152600f0193505050506040516020818303038152906040529050602d81602001f3fe7374617274496e646578206d757374206265206c657373207468616e20656e64496e646578617474656d70746564206465706c6f796d656e7420746f20756e65787065637465642061646472657373636f6e747261637420616c7265616479206465706c6f796564207769746820737570706c6965642073616c74a265627a7a723158205bd48b90850a5f5935c8b8fb6e28d2f7ab8004b74ad1a6b330fe759b636161a864736f6c634300050b0032",
  "source": "pragma solidity ^0.5.0;\n\nimport \"../modules/Factory.sol\";\nimport \"./SimpleGriefing.sol\";\n\n\ncontract SimpleGriefing_Factory is Factory {\n\n    constructor(address instanceRegistry, address templateContract) public {\n        SimpleGriefing template;\n        // set instance type\n        bytes4 instanceType = bytes4(keccak256(bytes('Agreement')));\n        // set initSelector\n        bytes4 initSelector = template.initialize.selector;\n        // initialize factory params\n        Factory._initialize(instanceRegistry, templateContract, instanceType, initSelector);\n    }\n\n}\n",
  "sourcePath": "/Users/thegostep/github/erasure-protocol/contracts/agreements/SimpleGriefing_Factory.sol",
  "compiler": {
    "name": "solc",
    "version": "0.5.11+commit.c082d0b4.Emscripten.clang",
    "optimizer": false,
    "runs": 200
  },
  "schemaVersion": "2.2.0",
  "updatedAt": "2019-09-24T17:30:40.489Z"
}